{
  "contractName": "GoldXBank",
  "abi": [
    {
      "inputs": [
        {
          "internalType": "contract IERC20",
          "name": "_staking",
          "type": "address"
        }
      ],
      "stateMutability": "nonpayable",
      "type": "constructor"
    },
    {
      "anonymous": false,
      "inputs": [
        {
          "indexed": false,
          "internalType": "address",
          "name": "_operator",
          "type": "address"
        }
      ],
      "name": "AddOperator",
      "type": "event"
    },
    {
      "anonymous": false,
      "inputs": [
        {
          "indexed": false,
          "internalType": "address",
          "name": "rewardToken0",
          "type": "address"
        },
        {
          "indexed": false,
          "internalType": "address",
          "name": "rewardToken1",
          "type": "address"
        },
        {
          "indexed": false,
          "internalType": "uint256",
          "name": "reward0",
          "type": "uint256"
        },
        {
          "indexed": false,
          "internalType": "uint256",
          "name": "reward1",
          "type": "uint256"
        }
      ],
      "name": "AddReward",
      "type": "event"
    },
    {
      "anonymous": false,
      "inputs": [
        {
          "indexed": true,
          "internalType": "address",
          "name": "user",
          "type": "address"
        },
        {
          "indexed": false,
          "internalType": "address",
          "name": "rewardToken",
          "type": "address"
        },
        {
          "indexed": false,
          "internalType": "uint256",
          "name": "reward",
          "type": "uint256"
        }
      ],
      "name": "Claim",
      "type": "event"
    },
    {
      "anonymous": false,
      "inputs": [
        {
          "indexed": true,
          "internalType": "address",
          "name": "user",
          "type": "address"
        },
        {
          "indexed": false,
          "internalType": "uint256",
          "name": "amount",
          "type": "uint256"
        }
      ],
      "name": "Deposit",
      "type": "event"
    },
    {
      "anonymous": false,
      "inputs": [
        {
          "indexed": true,
          "internalType": "address",
          "name": "user",
          "type": "address"
        },
        {
          "indexed": false,
          "internalType": "uint256",
          "name": "amount",
          "type": "uint256"
        }
      ],
      "name": "EmergencyWithdraw",
      "type": "event"
    },
    {
      "anonymous": false,
      "inputs": [
        {
          "indexed": true,
          "internalType": "address",
          "name": "previousOwner",
          "type": "address"
        },
        {
          "indexed": true,
          "internalType": "address",
          "name": "newOwner",
          "type": "address"
        }
      ],
      "name": "OwnershipTransferred",
      "type": "event"
    },
    {
      "anonymous": false,
      "inputs": [],
      "name": "Paused",
      "type": "event"
    },
    {
      "anonymous": false,
      "inputs": [
        {
          "indexed": false,
          "internalType": "address",
          "name": "_operator",
          "type": "address"
        }
      ],
      "name": "RemoveOperator",
      "type": "event"
    },
    {
      "anonymous": false,
      "inputs": [
        {
          "indexed": false,
          "internalType": "address",
          "name": "_rewardToken",
          "type": "address"
        }
      ],
      "name": "RewardToken",
      "type": "event"
    },
    {
      "anonymous": false,
      "inputs": [],
      "name": "UnPaused",
      "type": "event"
    },
    {
      "anonymous": false,
      "inputs": [
        {
          "indexed": true,
          "internalType": "address",
          "name": "user",
          "type": "address"
        },
        {
          "indexed": false,
          "internalType": "uint256",
          "name": "amount",
          "type": "uint256"
        }
      ],
      "name": "Withdraw",
      "type": "event"
    },
    {
      "inputs": [
        {
          "internalType": "address",
          "name": "",
          "type": "address"
        }
      ],
      "name": "accPerShare",
      "outputs": [
        {
          "internalType": "uint256",
          "name": "",
          "type": "uint256"
        }
      ],
      "stateMutability": "view",
      "type": "function"
    },
    {
      "inputs": [
        {
          "internalType": "address",
          "name": "",
          "type": "address"
        }
      ],
      "name": "operator",
      "outputs": [
        {
          "internalType": "bool",
          "name": "",
          "type": "bool"
        }
      ],
      "stateMutability": "view",
      "type": "function"
    },
    {
      "inputs": [],
      "name": "owner",
      "outputs": [
        {
          "internalType": "address",
          "name": "",
          "type": "address"
        }
      ],
      "stateMutability": "view",
      "type": "function"
    },
    {
      "inputs": [],
      "name": "paused",
      "outputs": [
        {
          "internalType": "bool",
          "name": "",
          "type": "bool"
        }
      ],
      "stateMutability": "view",
      "type": "function"
    },
    {
      "inputs": [],
      "name": "renounceOwnership",
      "outputs": [],
      "stateMutability": "nonpayable",
      "type": "function"
    },
    {
      "inputs": [],
      "name": "token",
      "outputs": [
        {
          "internalType": "contract IERC20",
          "name": "",
          "type": "address"
        }
      ],
      "stateMutability": "view",
      "type": "function"
    },
    {
      "inputs": [
        {
          "internalType": "address",
          "name": "newOwner",
          "type": "address"
        }
      ],
      "name": "transferOwnership",
      "outputs": [],
      "stateMutability": "nonpayable",
      "type": "function"
    },
    {
      "inputs": [
        {
          "internalType": "address",
          "name": "",
          "type": "address"
        }
      ],
      "name": "userInfo",
      "outputs": [
        {
          "internalType": "uint256",
          "name": "amount",
          "type": "uint256"
        }
      ],
      "stateMutability": "view",
      "type": "function"
    },
    {
      "inputs": [
        {
          "internalType": "contract IERC20",
          "name": "rewardToken0",
          "type": "address"
        },
        {
          "internalType": "contract IERC20",
          "name": "rewardToken1",
          "type": "address"
        },
        {
          "internalType": "uint256",
          "name": "amount0",
          "type": "uint256"
        },
        {
          "internalType": "uint256",
          "name": "amount1",
          "type": "uint256"
        }
      ],
      "name": "addReward",
      "outputs": [],
      "stateMutability": "nonpayable",
      "type": "function"
    },
    {
      "inputs": [
        {
          "internalType": "uint256",
          "name": "_amount",
          "type": "uint256"
        }
      ],
      "name": "deposit",
      "outputs": [],
      "stateMutability": "nonpayable",
      "type": "function"
    },
    {
      "inputs": [
        {
          "internalType": "address[]",
          "name": "rewardTokens",
          "type": "address[]"
        }
      ],
      "name": "claim",
      "outputs": [],
      "stateMutability": "nonpayable",
      "type": "function"
    },
    {
      "inputs": [
        {
          "internalType": "uint256",
          "name": "_amount",
          "type": "uint256"
        }
      ],
      "name": "withdraw",
      "outputs": [],
      "stateMutability": "nonpayable",
      "type": "function"
    },
    {
      "inputs": [],
      "name": "emergencyWithdraw",
      "outputs": [],
      "stateMutability": "nonpayable",
      "type": "function"
    },
    {
      "inputs": [],
      "name": "pause",
      "outputs": [],
      "stateMutability": "nonpayable",
      "type": "function"
    },
    {
      "inputs": [],
      "name": "unPause",
      "outputs": [],
      "stateMutability": "nonpayable",
      "type": "function"
    },
    {
      "inputs": [
        {
          "internalType": "address",
          "name": "_addr",
          "type": "address"
        }
      ],
      "name": "addOperator",
      "outputs": [],
      "stateMutability": "nonpayable",
      "type": "function"
    },
    {
      "inputs": [
        {
          "internalType": "address",
          "name": "_addr",
          "type": "address"
        }
      ],
      "name": "removeOperator",
      "outputs": [],
      "stateMutability": "nonpayable",
      "type": "function"
    },
    {
      "inputs": [
        {
          "internalType": "address",
          "name": "_user",
          "type": "address"
        },
        {
          "internalType": "address",
          "name": "rewardToken",
          "type": "address"
        }
      ],
      "name": "getUserInfo",
      "outputs": [
        {
          "internalType": "uint256",
          "name": "",
          "type": "uint256"
        },
        {
          "internalType": "uint256",
          "name": "",
          "type": "uint256"
        }
      ],
      "stateMutability": "view",
      "type": "function"
    }
  ],
  "bytecode": "0x608060405234801561001057600080fd5b5060405162002c6e38038062002c6e8339818101604052602081101561003557600080fd5b8101908080519060200190929190505050600061005661013b60201b60201c565b9050806000806101000a81548173ffffffffffffffffffffffffffffffffffffffff021916908373ffffffffffffffffffffffffffffffffffffffff1602179055508073ffffffffffffffffffffffffffffffffffffffff16600073ffffffffffffffffffffffffffffffffffffffff167f8be0079c531659141344cd1fd0a4f28419497f9722a3daafe3b4186f6b6457e060405160405180910390a35080600160006101000a81548173ffffffffffffffffffffffffffffffffffffffff021916908373ffffffffffffffffffffffffffffffffffffffff16021790555050610143565b600033905090565b612b1b80620001536000396000f3fe608060405234801561001057600080fd5b50600436106101165760003560e01c80639870d7fe116100a2578063db2e21bc11610071578063db2e21bc146104a1578063f2801fe7146104ab578063f2fde38b1461052a578063f7b188a51461056e578063fc0c546a1461057857610116565b80639870d7fe146103915780639a307391146103d5578063ac8a584a1461042f578063b6b55f251461047357610116565b80635c975abb116100e95780635c975abb146102d15780636b5c0c23146102f1578063715018a6146103495780638456cb59146103535780638da5cb5b1461035d57610116565b80631959a0021461011b5780632e1a7d4d14610173578063318d9e5d146101a1578063451adf2b14610259575b600080fd5b61015d6004803603602081101561013157600080fd5b81019080803573ffffffffffffffffffffffffffffffffffffffff1690602001909291905050506105ac565b6040518082815260200191505060405180910390f35b61019f6004803603602081101561018957600080fd5b81019080803590602001909291905050506105ca565b005b610257600480360360208110156101b757600080fd5b81019080803590602001906401000000008111156101d457600080fd5b8201836020820111156101e657600080fd5b8035906020019184602083028401116401000000008311171561020857600080fd5b919080806020026020016040519081016040528093929190818152602001838360200280828437600081840152601f19601f820116905080830192505050505050509192919290505050610844565b005b6102cf6004803603608081101561026f57600080fd5b81019080803573ffffffffffffffffffffffffffffffffffffffff169060200190929190803573ffffffffffffffffffffffffffffffffffffffff1690602001909291908035906020019092919080359060200190929190505050610945565b005b6102d96110eb565b60405180821515815260200191505060405180910390f35b6103336004803603602081101561030757600080fd5b81019080803573ffffffffffffffffffffffffffffffffffffffff1690602001909291905050506110fe565b6040518082815260200191505060405180910390f35b610351611116565b005b61035b611283565b005b61036561140d565b604051808273ffffffffffffffffffffffffffffffffffffffff16815260200191505060405180910390f35b6103d3600480360360208110156103a757600080fd5b81019080803573ffffffffffffffffffffffffffffffffffffffff169060200190929190505050611436565b005b610417600480360360208110156103eb57600080fd5b81019080803573ffffffffffffffffffffffffffffffffffffffff16906020019092919050505061158d565b60405180821515815260200191505060405180910390f35b6104716004803603602081101561044557600080fd5b81019080803573ffffffffffffffffffffffffffffffffffffffff1690602001909291905050506115ad565b005b61049f6004803603602081101561048957600080fd5b8101908080359060200190929190505050611704565b005b6104a9611940565b005b61050d600480360360408110156104c157600080fd5b81019080803573ffffffffffffffffffffffffffffffffffffffff169060200190929190803573ffffffffffffffffffffffffffffffffffffffff169060200190929190505050611aad565b604051808381526020018281526020019250505060405180910390f35b61056c6004803603602081101561054057600080fd5b81019080803573ffffffffffffffffffffffffffffffffffffffff169060200190929190505050611b7e565b005b610576611d70565b005b610580611efb565b604051808273ffffffffffffffffffffffffffffffffffffffff16815260200191505060405180910390f35b60026020528060005260406000206000915090508060000154905081565b600160149054906101000a900460ff161561064d576040517f08c379a000000000000000000000000000000000000000000000000000000000815260040180806020018281038252600f8152602001807f636f6e7472616374204c6f636b6564000000000000000000000000000000000081525060200191505060405180910390fd5b600081116106c3576040517f08c379a000000000000000000000000000000000000000000000000000000000815260040180806020018281038252600b8152602001807f7a65726f20616d6f756e7400000000000000000000000000000000000000000081525060200191505060405180910390fd5b60003390506000600260008373ffffffffffffffffffffffffffffffffffffffff1673ffffffffffffffffffffffffffffffffffffffff16815260200190815260200160002090508281600001541015610785576040517f08c379a00000000000000000000000000000000000000000000000000000000081526004018080602001828103825260128152602001807f77697468647261773a206e6f7420676f6f64000000000000000000000000000081525060200191505060405180910390fd5b61079c838260000154611f2190919063ffffffff16565b81600001819055506107f18284600160009054906101000a900473ffffffffffffffffffffffffffffffffffffffff1673ffffffffffffffffffffffffffffffffffffffff16611fa49092919063ffffffff16565b8173ffffffffffffffffffffffffffffffffffffffff167f884edad9ce6fa2440d8a54cc123490eb96d2768479d49ff9c7366125a9424364846040518082815260200191505060405180910390a2505050565b600160149054906101000a900460ff16156108c7576040517f08c379a000000000000000000000000000000000000000000000000000000000815260040180806020018281038252600f8152602001807f636f6e7472616374204c6f636b6564000000000000000000000000000000000081525060200191505060405180910390fd5b6000600260003373ffffffffffffffffffffffffffffffffffffffff1673ffffffffffffffffffffffffffffffffffffffff168152602001908152602001600020905060005b8251811015610940576109338284838151811061092657fe5b6020026020010151612046565b808060010191505061090d565b505050565b6000600160009054906101000a900473ffffffffffffffffffffffffffffffffffffffff1673ffffffffffffffffffffffffffffffffffffffff166370a08231306040518263ffffffff1660e01b8152600401808273ffffffffffffffffffffffffffffffffffffffff16815260200191505060206040518083038186803b1580156109d057600080fd5b505afa1580156109e4573d6000803e3d6000fd5b505050506040513d60208110156109fa57600080fd5b810190808051906020019092919050505090506000811415610bc0578473ffffffffffffffffffffffffffffffffffffffff166323b872dd33610a3b61140d565b866040518463ffffffff1660e01b8152600401808473ffffffffffffffffffffffffffffffffffffffff1681526020018373ffffffffffffffffffffffffffffffffffffffff1681526020018281526020019350505050602060405180830381600087803b158015610aac57600080fd5b505af1158015610ac0573d6000803e3d6000fd5b505050506040513d6020811015610ad657600080fd5b8101908080519060200190929190505050508373ffffffffffffffffffffffffffffffffffffffff166323b872dd33610b0d61140d565b856040518463ffffffff1660e01b8152600401808473ffffffffffffffffffffffffffffffffffffffff1681526020018373ffffffffffffffffffffffffffffffffffffffff1681526020018281526020019350505050602060405180830381600087803b158015610b7e57600080fd5b505af1158015610b92573d6000803e3d6000fd5b505050506040513d6020811015610ba857600080fd5b810190808051906020019092919050505050506110e5565b6000600360008773ffffffffffffffffffffffffffffffffffffffff1673ffffffffffffffffffffffffffffffffffffffff168152602001908152602001600020541415610c56577fd9078653fc0ab56789d31bc2c38fcaecf28034549baf737c02b719513837563b85604051808273ffffffffffffffffffffffffffffffffffffffff16815260200191505060405180910390a15b6000600360008673ffffffffffffffffffffffffffffffffffffffff1673ffffffffffffffffffffffffffffffffffffffff168152602001908152602001600020541415610cec577fd9078653fc0ab56789d31bc2c38fcaecf28034549baf737c02b719513837563b84604051808273ffffffffffffffffffffffffffffffffffffffff16815260200191505060405180910390a15b600073ffffffffffffffffffffffffffffffffffffffff168573ffffffffffffffffffffffffffffffffffffffff1614610eaa578473ffffffffffffffffffffffffffffffffffffffff166323b872dd3330866040518463ffffffff1660e01b8152600401808473ffffffffffffffffffffffffffffffffffffffff1681526020018373ffffffffffffffffffffffffffffffffffffffff1681526020018281526020019350505050602060405180830381600087803b158015610daf57600080fd5b505af1158015610dc3573d6000803e3d6000fd5b505050506040513d6020811015610dd957600080fd5b810190808051906020019092919050505050610e66610e1882610e0a64e8d4a510008761224b90919063ffffffff16565b6122d190919063ffffffff16565b600360008873ffffffffffffffffffffffffffffffffffffffff1673ffffffffffffffffffffffffffffffffffffffff1681526020019081526020016000205461235a90919063ffffffff16565b600360008773ffffffffffffffffffffffffffffffffffffffff1673ffffffffffffffffffffffffffffffffffffffff168152602001908152602001600020819055505b600073ffffffffffffffffffffffffffffffffffffffff168473ffffffffffffffffffffffffffffffffffffffff1614611068578373ffffffffffffffffffffffffffffffffffffffff166323b872dd3330856040518463ffffffff1660e01b8152600401808473ffffffffffffffffffffffffffffffffffffffff1681526020018373ffffffffffffffffffffffffffffffffffffffff1681526020018281526020019350505050602060405180830381600087803b158015610f6d57600080fd5b505af1158015610f81573d6000803e3d6000fd5b505050506040513d6020811015610f9757600080fd5b810190808051906020019092919050505050611024610fd682610fc864e8d4a510008661224b90919063ffffffff16565b6122d190919063ffffffff16565b600360008773ffffffffffffffffffffffffffffffffffffffff1673ffffffffffffffffffffffffffffffffffffffff1681526020019081526020016000205461235a90919063ffffffff16565b600360008673ffffffffffffffffffffffffffffffffffffffff1673ffffffffffffffffffffffffffffffffffffffff168152602001908152602001600020819055505b7f464108cc474515e518612456d1896ac7329d978cfd2353a6ee0ecda7d27b2cd985858585604051808573ffffffffffffffffffffffffffffffffffffffff1681526020018473ffffffffffffffffffffffffffffffffffffffff16815260200183815260200182815260200194505050505060405180910390a1505b50505050565b600160149054906101000a900460ff1681565b60036020528060005260406000206000915090505481565b61111e6123e2565b73ffffffffffffffffffffffffffffffffffffffff1661113c61140d565b73ffffffffffffffffffffffffffffffffffffffff16146111c5576040517f08c379a00000000000000000000000000000000000000000000000000000000081526004018080602001828103825260208152602001807f4f776e61626c653a2063616c6c6572206973206e6f7420746865206f776e657281525060200191505060405180910390fd5b600073ffffffffffffffffffffffffffffffffffffffff1660008054906101000a900473ffffffffffffffffffffffffffffffffffffffff1673ffffffffffffffffffffffffffffffffffffffff167f8be0079c531659141344cd1fd0a4f28419497f9722a3daafe3b4186f6b6457e060405160405180910390a360008060006101000a81548173ffffffffffffffffffffffffffffffffffffffff021916908373ffffffffffffffffffffffffffffffffffffffff160217905550565b600460003373ffffffffffffffffffffffffffffffffffffffff1673ffffffffffffffffffffffffffffffffffffffff16815260200190815260200160002060009054906101000a900460ff16611342576040517f08c379a000000000000000000000000000000000000000000000000000000000815260040180806020018281038252600d8152602001807f6f6e6c79206f70657261746f720000000000000000000000000000000000000081525060200191505060405180910390fd5b600160149054906101000a900460ff16156113c5576040517f08c379a000000000000000000000000000000000000000000000000000000000815260040180806020018281038252600e8152602001807f616c72656164792070617573656400000000000000000000000000000000000081525060200191505060405180910390fd5b60018060146101000a81548160ff0219169083151502179055507f9e87fac88ff661f02d44f95383c817fece4bce600a3dab7a54406878b965e75260405160405180910390a1565b60008060009054906101000a900473ffffffffffffffffffffffffffffffffffffffff16905090565b61143e6123e2565b73ffffffffffffffffffffffffffffffffffffffff1661145c61140d565b73ffffffffffffffffffffffffffffffffffffffff16146114e5576040517f08c379a00000000000000000000000000000000000000000000000000000000081526004018080602001828103825260208152602001807f4f776e61626c653a2063616c6c6572206973206e6f7420746865206f776e657281525060200191505060405180910390fd5b6001600460008373ffffffffffffffffffffffffffffffffffffffff1673ffffffffffffffffffffffffffffffffffffffff16815260200190815260200160002060006101000a81548160ff0219169083151502179055507f4c141abccf173677929dea054f218ed87362117834a8869ec9f68d8bdaaea1dc81604051808273ffffffffffffffffffffffffffffffffffffffff16815260200191505060405180910390a150565b60046020528060005260406000206000915054906101000a900460ff1681565b6115b56123e2565b73ffffffffffffffffffffffffffffffffffffffff166115d361140d565b73ffffffffffffffffffffffffffffffffffffffff161461165c576040517f08c379a00000000000000000000000000000000000000000000000000000000081526004018080602001828103825260208152602001807f4f776e61626c653a2063616c6c6572206973206e6f7420746865206f776e657281525060200191505060405180910390fd5b6000600460008373ffffffffffffffffffffffffffffffffffffffff1673ffffffffffffffffffffffffffffffffffffffff16815260200190815260200160002060006101000a81548160ff0219169083151502179055507f6b4be2dd49eba45ba43390fbe7da13e2b965d255db41d6a0fcf6d2e15ac1fccb81604051808273ffffffffffffffffffffffffffffffffffffffff16815260200191505060405180910390a150565b600160149054906101000a900460ff1615611787576040517f08c379a000000000000000000000000000000000000000000000000000000000815260040180806020018281038252600f8152602001807f636f6e7472616374204c6f636b6564000000000000000000000000000000000081525060200191505060405180910390fd5b600081116117fd576040517f08c379a000000000000000000000000000000000000000000000000000000000815260040180806020018281038252600b8152602001807f7a65726f20616d6f756e7400000000000000000000000000000000000000000081525060200191505060405180910390fd5b60003390506000600260008373ffffffffffffffffffffffffffffffffffffffff1673ffffffffffffffffffffffffffffffffffffffff168152602001908152602001600020905060008160000154111561187f5761187e81600160009054906101000a900473ffffffffffffffffffffffffffffffffffffffff16612046565b5b6118ce823085600160009054906101000a900473ffffffffffffffffffffffffffffffffffffffff1673ffffffffffffffffffffffffffffffffffffffff166123ea909392919063ffffffff16565b6118e583826000015461235a90919063ffffffff16565b81600001819055508173ffffffffffffffffffffffffffffffffffffffff167fe1fffcc4923d04b559f4d29a8bfc6cda04eb5b0d3c460751c2402c5c5cc9109c846040518082815260200191505060405180910390a2505050565b6000600260003373ffffffffffffffffffffffffffffffffffffffff1673ffffffffffffffffffffffffffffffffffffffff168152602001908152602001600020905060008160000154116119fd576040517f08c379a000000000000000000000000000000000000000000000000000000000815260040180806020018281038252600b8152602001807f7a65726f20616d6f756e7400000000000000000000000000000000000000000081525060200191505060405180910390fd5b611a4e338260000154600160009054906101000a900473ffffffffffffffffffffffffffffffffffffffff1673ffffffffffffffffffffffffffffffffffffffff16611fa49092919063ffffffff16565b600081600001819055503373ffffffffffffffffffffffffffffffffffffffff167f5fafa99d0643513820be26656b45130b01e1c03062e1266bf36f88cbd3bd969582600001546040518082815260200191505060405180910390a250565b600080600260008573ffffffffffffffffffffffffffffffffffffffff1673ffffffffffffffffffffffffffffffffffffffff16815260200190815260200160002060000154600260008673ffffffffffffffffffffffffffffffffffffffff1673ffffffffffffffffffffffffffffffffffffffff16815260200190815260200160002060010160008573ffffffffffffffffffffffffffffffffffffffff1673ffffffffffffffffffffffffffffffffffffffff16815260200190815260200160002054915091509250929050565b611b866123e2565b73ffffffffffffffffffffffffffffffffffffffff16611ba461140d565b73ffffffffffffffffffffffffffffffffffffffff1614611c2d576040517f08c379a00000000000000000000000000000000000000000000000000000000081526004018080602001828103825260208152602001807f4f776e61626c653a2063616c6c6572206973206e6f7420746865206f776e657281525060200191505060405180910390fd5b600073ffffffffffffffffffffffffffffffffffffffff168173ffffffffffffffffffffffffffffffffffffffff161415611cb3576040517f08c379a0000000000000000000000000000000000000000000000000000000008152600401808060200182810382526026815260200180612a4f6026913960400191505060405180910390fd5b8073ffffffffffffffffffffffffffffffffffffffff1660008054906101000a900473ffffffffffffffffffffffffffffffffffffffff1673ffffffffffffffffffffffffffffffffffffffff167f8be0079c531659141344cd1fd0a4f28419497f9722a3daafe3b4186f6b6457e060405160405180910390a3806000806101000a81548173ffffffffffffffffffffffffffffffffffffffff021916908373ffffffffffffffffffffffffffffffffffffffff16021790555050565b600460003373ffffffffffffffffffffffffffffffffffffffff1673ffffffffffffffffffffffffffffffffffffffff16815260200190815260200160002060009054906101000a900460ff16611e2f576040517f08c379a000000000000000000000000000000000000000000000000000000000815260040180806020018281038252600d8152602001807f6f6e6c79206f70657261746f720000000000000000000000000000000000000081525060200191505060405180910390fd5b600160149054906101000a900460ff1615611eb2576040517f08c379a00000000000000000000000000000000000000000000000000000000081526004018080602001828103825260108152602001807f616c726561647920756e5061757365640000000000000000000000000000000081525060200191505060405180910390fd5b6000600160146101000a81548160ff0219169083151502179055507f472cf038e2a5f33dbaa68760dbf94ab4e159535e6580c0ac63f8202c7c6c0bb260405160405180910390a1565b600160009054906101000a900473ffffffffffffffffffffffffffffffffffffffff1681565b600082821115611f99576040517f08c379a000000000000000000000000000000000000000000000000000000000815260040180806020018281038252601e8152602001807f536166654d6174683a207375627472616374696f6e206f766572666c6f77000081525060200191505060405180910390fd5b818303905092915050565b6120418363a9059cbb60e01b8484604051602401808373ffffffffffffffffffffffffffffffffffffffff16815260200182815260200192505050604051602081830303815290604052907bffffffffffffffffffffffffffffffffffffffffffffffffffffffff19166020820180517bffffffffffffffffffffffffffffffffffffffffffffffffffffffff83818316178352505050506124ab565b505050565b600033905060008084600001541115612127576121198460010160008573ffffffffffffffffffffffffffffffffffffffff1673ffffffffffffffffffffffffffffffffffffffff1681526020019081526020016000205461210b64e8d4a510006120fd600360008973ffffffffffffffffffffffffffffffffffffffff1673ffffffffffffffffffffffffffffffffffffffff16815260200190815260200160002054896000015461224b90919063ffffffff16565b6122d190919063ffffffff16565b611f2190919063ffffffff16565b905061212683838361259a565b5b61219464e8d4a51000612186600360008773ffffffffffffffffffffffffffffffffffffffff1673ffffffffffffffffffffffffffffffffffffffff16815260200190815260200160002054876000015461224b90919063ffffffff16565b6122d190919063ffffffff16565b8460010160008573ffffffffffffffffffffffffffffffffffffffff1673ffffffffffffffffffffffffffffffffffffffff168152602001908152602001600020819055508173ffffffffffffffffffffffffffffffffffffffff167f70eb43c4a8ae8c40502dcf22436c509c28d6ff421cf07c491be56984bd9870688483604051808373ffffffffffffffffffffffffffffffffffffffff1681526020018281526020019250505060405180910390a250505050565b60008083141561225e57600090506122cb565b600082840290508284828161226f57fe5b04146122c6576040517f08c379a0000000000000000000000000000000000000000000000000000000008152600401808060200182810382526021815260200180612a9b6021913960400191505060405180910390fd5b809150505b92915050565b6000808211612348576040517f08c379a000000000000000000000000000000000000000000000000000000000815260040180806020018281038252601a8152602001807f536166654d6174683a206469766973696f6e206279207a65726f00000000000081525060200191505060405180910390fd5b81838161235157fe5b04905092915050565b6000808284019050838110156123d8576040517f08c379a000000000000000000000000000000000000000000000000000000000815260040180806020018281038252601b8152602001807f536166654d6174683a206164646974696f6e206f766572666c6f77000000000081525060200191505060405180910390fd5b8091505092915050565b600033905090565b6124a5846323b872dd60e01b858585604051602401808473ffffffffffffffffffffffffffffffffffffffff1681526020018373ffffffffffffffffffffffffffffffffffffffff1681526020018281526020019350505050604051602081830303815290604052907bffffffffffffffffffffffffffffffffffffffffffffffffffffffff19166020820180517bffffffffffffffffffffffffffffffffffffffffffffffffffffffff83818316178352505050506124ab565b50505050565b606061250d826040518060400160405280602081526020017f5361666545524332303a206c6f772d6c6576656c2063616c6c206661696c65648152508573ffffffffffffffffffffffffffffffffffffffff166127ae9092919063ffffffff16565b90506000815111156125955780806020019051602081101561252e57600080fd5b8101908080519060200190929190505050612594576040517f08c379a000000000000000000000000000000000000000000000000000000000815260040180806020018281038252602a815260200180612abc602a913960400191505060405180910390fd5b5b505050565b60008373ffffffffffffffffffffffffffffffffffffffff166370a08231306040518263ffffffff1660e01b8152600401808273ffffffffffffffffffffffffffffffffffffffff16815260200191505060206040518083038186803b15801561260357600080fd5b505afa158015612617573d6000803e3d6000fd5b505050506040513d602081101561262d57600080fd5b81019080805190602001909291905050509050808211156126fa578373ffffffffffffffffffffffffffffffffffffffff1663a9059cbb84836040518363ffffffff1660e01b8152600401808373ffffffffffffffffffffffffffffffffffffffff16815260200182815260200192505050602060405180830381600087803b1580156126b957600080fd5b505af11580156126cd573d6000803e3d6000fd5b505050506040513d60208110156126e357600080fd5b8101908080519060200190929190505050506127a8565b8373ffffffffffffffffffffffffffffffffffffffff1663a9059cbb84846040518363ffffffff1660e01b8152600401808373ffffffffffffffffffffffffffffffffffffffff16815260200182815260200192505050602060405180830381600087803b15801561276b57600080fd5b505af115801561277f573d6000803e3d6000fd5b505050506040513d602081101561279557600080fd5b8101908080519060200190929190505050505b50505050565b60606127bd84846000856127c6565b90509392505050565b606082471015612821576040517f08c379a0000000000000000000000000000000000000000000000000000000008152600401808060200182810382526026815260200180612a756026913960400191505060405180910390fd5b61282a8561296f565b61289c576040517f08c379a000000000000000000000000000000000000000000000000000000000815260040180806020018281038252601d8152602001807f416464726573733a2063616c6c20746f206e6f6e2d636f6e747261637400000081525060200191505060405180910390fd5b600060608673ffffffffffffffffffffffffffffffffffffffff1685876040518082805190602001908083835b602083106128ec57805182526020820191506020810190506020830392506128c9565b6001836020036101000a03801982511681845116808217855250505050505090500191505060006040518083038185875af1925050503d806000811461294e576040519150601f19603f3d011682016040523d82523d6000602084013e612953565b606091505b5091509150612963828286612982565b92505050949350505050565b600080823b905060008111915050919050565b6060831561299257829050612a47565b6000835111156129a55782518084602001fd5b816040517f08c379a00000000000000000000000000000000000000000000000000000000081526004018080602001828103825283818151815260200191508051906020019080838360005b83811015612a0c5780820151818401526020810190506129f1565b50505050905090810190601f168015612a395780820380516001836020036101000a031916815260200191505b509250505060405180910390fd5b939250505056fe4f776e61626c653a206e6577206f776e657220697320746865207a65726f2061646472657373416464726573733a20696e73756666696369656e742062616c616e636520666f722063616c6c536166654d6174683a206d756c7469706c69636174696f6e206f766572666c6f775361666545524332303a204552433230206f7065726174696f6e20646964206e6f742073756363656564a2646970667358221220de4f6bc863e54f75bf4aa3c2352f6e3e9be3f09ab8da027bb46470a5e9763a8a64736f6c634300060c0033",
  "source": "// SPDX-License-Identifier: MIT\npragma solidity 0.6.12;\n\nimport \"@openzeppelin/contracts/token/ERC20/IERC20.sol\";\nimport \"@openzeppelin/contracts/token/ERC20/SafeERC20.sol\";\nimport \"@openzeppelin/contracts/utils/EnumerableSet.sol\";\nimport \"@openzeppelin/contracts/math/SafeMath.sol\";\nimport \"@openzeppelin/contracts/access/Ownable.sol\";\n\ncontract GoldXBank is Ownable {\n    using SafeMath for uint256;\n    using SafeERC20 for IERC20;\n    // Info of each user.\n    struct UserInfo {\n        uint256 amount;\n        mapping(address => uint256) rewardDebt;\n    }\n    IERC20 public token; //staking token\n    bool public paused;\n\n    // Info of each user\n    mapping(address => UserInfo) public userInfo;\n    mapping(address => uint256) public accPerShare;\n\n    // operator record\n    mapping(address => bool) public operator;\n\n    event Deposit(address indexed user, uint256 amount);\n    event Withdraw(address indexed user, uint256 amount);\n    event EmergencyWithdraw(address indexed user, uint256 amount);\n    event AddReward(\n        address rewardToken0,\n        address rewardToken1,\n        uint256 reward0,\n        uint256 reward1\n    );\n    event Claim(address indexed user, address rewardToken, uint256 reward);\n    event Paused();\n    event UnPaused();\n    event AddOperator(address _operator);\n    event RemoveOperator(address _operator);\n    event RewardToken(address _rewardToken);\n\n    modifier isPaused() {\n        require(!paused, \"contract Locked\");\n        _;\n    }\n\n    modifier isOperator() {\n        require(operator[msg.sender], \"only operator\");\n        _;\n    }\n\n    constructor(IERC20 _staking) public {\n        token = _staking;\n    }\n\n    // Update reward variables of the given pool to be up-to-date.\n    function addReward(\n        IERC20 rewardToken0,\n        IERC20 rewardToken1,\n        uint256 amount0,\n        uint256 amount1\n    ) public {\n        uint256 lpSupply = token.balanceOf(address(this));\n        if (lpSupply == 0) {\n            rewardToken0.transferFrom(msg.sender, owner(), amount0);\n            rewardToken1.transferFrom(msg.sender, owner(), amount1);\n            return;\n        }\n        if (accPerShare[address(rewardToken0)] == 0) {\n            emit RewardToken(address(rewardToken0));\n        }\n        if (accPerShare[address(rewardToken1)] == 0) {\n            emit RewardToken(address(rewardToken1));\n        }\n\n        if (address(rewardToken0) != address(0x00)) {\n            rewardToken0.transferFrom(msg.sender, address(this), amount0);\n            accPerShare[address(rewardToken0)] = accPerShare[address(\n                rewardToken0\n            )]\n                .add(amount0.mul(1e12).div(lpSupply));\n        }\n        if (address(rewardToken1) != address(0x00)) {\n            rewardToken1.transferFrom(msg.sender, address(this), amount1);\n            accPerShare[address(rewardToken1)] = accPerShare[address(\n                rewardToken1\n            )]\n                .add(amount1.mul(1e12).div(lpSupply));\n        }\n\n        emit AddReward(\n            address(rewardToken0),\n            address(rewardToken1),\n            amount0,\n            amount1\n        );\n    }\n\n    function deposit(uint256 _amount) public isPaused {\n        require(_amount > 0, \"zero amount\");\n        address _userAddr = msg.sender;\n        UserInfo storage user = userInfo[_userAddr];\n        if (user.amount > 0) {\n            _claimReward(user, address(token));\n        }\n        token.safeTransferFrom(address(_userAddr), address(this), _amount);\n        user.amount = user.amount.add(_amount);\n        emit Deposit(_userAddr, _amount);\n    }\n\n    function claim(address[] memory rewardTokens) public isPaused {\n        UserInfo storage user = userInfo[msg.sender];\n        for (uint256 i = 0; i < rewardTokens.length; i++) {\n            _claimReward(user, rewardTokens[i]);\n        }\n    }\n\n    function _claimReward(UserInfo storage user, address rewardToken) private {\n        address _userAddr = msg.sender;\n        uint256 pendingReward;\n        if (user.amount > 0) {\n            pendingReward = user\n                .amount\n                .mul(accPerShare[rewardToken])\n                .div(1e12)\n                .sub(user.rewardDebt[rewardToken]);\n            safeRewardTransfer(IERC20(rewardToken), _userAddr, pendingReward);\n        }\n\n        user.rewardDebt[rewardToken] = user\n            .amount\n            .mul(accPerShare[rewardToken])\n            .div(1e12);\n\n        emit Claim(_userAddr, rewardToken, pendingReward);\n    }\n\n    function withdraw(uint256 _amount) public isPaused {\n        require(_amount > 0, \"zero amount\");\n        address _userAddr = msg.sender;\n        UserInfo storage user = userInfo[_userAddr];\n        require(user.amount >= _amount, \"withdraw: not good\");\n\n        user.amount = user.amount.sub(_amount);\n        token.safeTransfer(address(_userAddr), _amount);\n        emit Withdraw(_userAddr, _amount);\n    }\n\n    // Withdraw without caring about rewards. EMERGENCY ONLY.\n    function emergencyWithdraw() public {\n        UserInfo storage user = userInfo[msg.sender];\n        require(user.amount > 0, \"zero amount\");\n        token.safeTransfer(address(msg.sender), user.amount);\n        user.amount = 0;\n        emit EmergencyWithdraw(msg.sender, user.amount);\n    }\n\n    // Safe transfer function\n    function safeRewardTransfer(\n        IERC20 _reward,\n        address _to,\n        uint256 _amount\n    ) internal {\n        uint256 _rewardBal = _reward.balanceOf(address(this));\n        if (_amount > _rewardBal) {\n            _reward.transfer(_to, _rewardBal);\n        } else {\n            _reward.transfer(_to, _amount);\n        }\n    }\n\n    function pause() external isOperator {\n        require(!paused, \"already paused\");\n        paused = true;\n        emit Paused();\n    }\n\n    function unPause() external isOperator {\n        require(!paused, \"already unPaused\");\n        paused = false;\n        emit UnPaused();\n    }\n\n    function addOperator(address _addr) external onlyOwner {\n        operator[_addr] = true;\n        emit AddOperator(_addr);\n    }\n\n    function removeOperator(address _addr) external onlyOwner {\n        operator[_addr] = false;\n        emit RemoveOperator(_addr);\n    }\n\n    function getUserInfo(address _user, address rewardToken)\n        external\n        view\n        returns (uint256, uint256)\n    {\n        return (\n            userInfo[_user].amount,\n            userInfo[_user].rewardDebt[rewardToken]\n        );\n    }\n}\n",
  "sourcePath": "/home/sultana/Desktop/learn/upgradable/spiderSwap/contracts/Farm/GoldXBank.sol",
  "compiler": {
    "name": "solc",
    "version": "0.6.12+commit.27d51765.Emscripten.clang"
  },
  "schemaVersion": "3.0.23",
  "updatedAt": "2022-02-11T17:37:25.317Z",
  "devdoc": {
    "kind": "dev",
    "methods": {
      "owner()": {
        "details": "Returns the address of the current owner."
      },
      "renounceOwnership()": {
        "details": "Leaves the contract without owner. It will not be possible to call `onlyOwner` functions anymore. Can only be called by the current owner. NOTE: Renouncing ownership will leave the contract without an owner, thereby removing any functionality that is only available to the owner."
      },
      "transferOwnership(address)": {
        "details": "Transfers ownership of the contract to a new account (`newOwner`). Can only be called by the current owner."
      }
    },
    "version": 1
  },
  "userdoc": {
    "kind": "user",
    "methods": {},
    "version": 1
  }
}