{
  "contractName": "MoroccoSwapFeeTransfer",
  "abi": [
    {
      "inputs": [
        {
          "internalType": "address",
          "name": "_factory",
          "type": "address"
        },
        {
          "internalType": "address",
          "name": "_router",
          "type": "address"
        },
        {
          "internalType": "address",
          "name": "_feeSetter",
          "type": "address"
        }
      ],
      "stateMutability": "nonpayable",
      "type": "constructor"
    },
    {
      "inputs": [],
      "name": "DEADADDRESS",
      "outputs": [
        {
          "internalType": "address",
          "name": "",
          "type": "address"
        }
      ],
      "stateMutability": "view",
      "type": "function"
    },
    {
      "inputs": [],
      "name": "PERCENT100",
      "outputs": [
        {
          "internalType": "uint256",
          "name": "",
          "type": "uint256"
        }
      ],
      "stateMutability": "view",
      "type": "function"
    },
    {
      "inputs": [],
      "name": "bankFee",
      "outputs": [
        {
          "internalType": "uint256",
          "name": "",
          "type": "uint256"
        }
      ],
      "stateMutability": "view",
      "type": "function"
    },
    {
      "inputs": [],
      "name": "btcxBank",
      "outputs": [
        {
          "internalType": "address",
          "name": "",
          "type": "address"
        }
      ],
      "stateMutability": "view",
      "type": "function"
    },
    {
      "inputs": [],
      "name": "ethxBank",
      "outputs": [
        {
          "internalType": "address",
          "name": "",
          "type": "address"
        }
      ],
      "stateMutability": "view",
      "type": "function"
    },
    {
      "inputs": [],
      "name": "factory",
      "outputs": [
        {
          "internalType": "address",
          "name": "",
          "type": "address"
        }
      ],
      "stateMutability": "view",
      "type": "function"
    },
    {
      "inputs": [],
      "name": "farm",
      "outputs": [
        {
          "internalType": "address",
          "name": "",
          "type": "address"
        }
      ],
      "stateMutability": "view",
      "type": "function"
    },
    {
      "inputs": [],
      "name": "feeSetter",
      "outputs": [
        {
          "internalType": "address",
          "name": "",
          "type": "address"
        }
      ],
      "stateMutability": "view",
      "type": "function"
    },
    {
      "inputs": [],
      "name": "global",
      "outputs": [
        {
          "internalType": "address",
          "name": "",
          "type": "address"
        }
      ],
      "stateMutability": "view",
      "type": "function"
    },
    {
      "inputs": [],
      "name": "globalFee",
      "outputs": [
        {
          "internalType": "uint256",
          "name": "",
          "type": "uint256"
        }
      ],
      "stateMutability": "view",
      "type": "function"
    },
    {
      "inputs": [],
      "name": "goldxBank",
      "outputs": [
        {
          "internalType": "address",
          "name": "",
          "type": "address"
        }
      ],
      "stateMutability": "view",
      "type": "function"
    },
    {
      "inputs": [],
      "name": "kythBank",
      "outputs": [
        {
          "internalType": "address",
          "name": "",
          "type": "address"
        }
      ],
      "stateMutability": "view",
      "type": "function"
    },
    {
      "inputs": [],
      "name": "roulette",
      "outputs": [
        {
          "internalType": "address",
          "name": "",
          "type": "address"
        }
      ],
      "stateMutability": "view",
      "type": "function"
    },
    {
      "inputs": [],
      "name": "rouletteFee",
      "outputs": [
        {
          "internalType": "uint256",
          "name": "",
          "type": "uint256"
        }
      ],
      "stateMutability": "view",
      "type": "function"
    },
    {
      "inputs": [],
      "name": "router",
      "outputs": [
        {
          "internalType": "address",
          "name": "",
          "type": "address"
        }
      ],
      "stateMutability": "view",
      "type": "function"
    },
    {
      "inputs": [],
      "name": "sLockFee",
      "outputs": [
        {
          "internalType": "uint256",
          "name": "",
          "type": "uint256"
        }
      ],
      "stateMutability": "view",
      "type": "function"
    },
    {
      "inputs": [],
      "name": "sUSDTxFee",
      "outputs": [
        {
          "internalType": "uint256",
          "name": "",
          "type": "uint256"
        }
      ],
      "stateMutability": "view",
      "type": "function"
    },
    {
      "inputs": [],
      "name": "sfarmFee",
      "outputs": [
        {
          "internalType": "uint256",
          "name": "",
          "type": "uint256"
        }
      ],
      "stateMutability": "view",
      "type": "function"
    },
    {
      "inputs": [],
      "name": "sglobalFee",
      "outputs": [
        {
          "internalType": "uint256",
          "name": "",
          "type": "uint256"
        }
      ],
      "stateMutability": "view",
      "type": "function"
    },
    {
      "inputs": [],
      "name": "srouletteFee",
      "outputs": [
        {
          "internalType": "uint256",
          "name": "",
          "type": "uint256"
        }
      ],
      "stateMutability": "view",
      "type": "function"
    },
    {
      "inputs": [],
      "name": "swaptotalFee",
      "outputs": [
        {
          "internalType": "uint256",
          "name": "",
          "type": "uint256"
        }
      ],
      "stateMutability": "view",
      "type": "function"
    },
    {
      "inputs": [],
      "name": "totalFee",
      "outputs": [
        {
          "internalType": "uint256",
          "name": "",
          "type": "uint256"
        }
      ],
      "stateMutability": "view",
      "type": "function"
    },
    {
      "inputs": [],
      "name": "usdtxBank",
      "outputs": [
        {
          "internalType": "address",
          "name": "",
          "type": "address"
        }
      ],
      "stateMutability": "view",
      "type": "function"
    },
    {
      "inputs": [
        {
          "internalType": "address",
          "name": "lp",
          "type": "address"
        },
        {
          "internalType": "address",
          "name": "token",
          "type": "address"
        },
        {
          "internalType": "uint256",
          "name": "amount",
          "type": "uint256"
        }
      ],
      "name": "takeSwapFee",
      "outputs": [
        {
          "internalType": "uint256",
          "name": "",
          "type": "uint256"
        }
      ],
      "stateMutability": "nonpayable",
      "type": "function"
    },
    {
      "inputs": [
        {
          "internalType": "address",
          "name": "_token0",
          "type": "address"
        },
        {
          "internalType": "address",
          "name": "_token1",
          "type": "address"
        },
        {
          "internalType": "uint256",
          "name": "_amount0",
          "type": "uint256"
        },
        {
          "internalType": "uint256",
          "name": "_amount1",
          "type": "uint256"
        }
      ],
      "name": "takeLiquidityFee",
      "outputs": [],
      "stateMutability": "nonpayable",
      "type": "function"
    },
    {
      "inputs": [
        {
          "internalType": "address",
          "name": "_global",
          "type": "address"
        },
        {
          "internalType": "address",
          "name": "_roulette",
          "type": "address"
        },
        {
          "internalType": "address",
          "name": "_farm",
          "type": "address"
        },
        {
          "internalType": "address",
          "name": "_kythBank",
          "type": "address"
        },
        {
          "internalType": "address",
          "name": "_usdtxBank",
          "type": "address"
        },
        {
          "internalType": "address",
          "name": "_goldxBank",
          "type": "address"
        },
        {
          "internalType": "address",
          "name": "_btcxBank",
          "type": "address"
        },
        {
          "internalType": "address",
          "name": "_ethxBank",
          "type": "address"
        }
      ],
      "name": "configure",
      "outputs": [],
      "stateMutability": "nonpayable",
      "type": "function"
    }
  ],
  "bytecode": "0x60806040526103e8600a55611b58600b556101f4600c556130d4600d55610384600e556032600f556103b660105560646011556101f46012556109c460135534801561004a57600080fd5b506040516123063803806123068339818101604052606081101561006d57600080fd5b81019080805190602001909291908051906020019092919080519060200190929190505050826000806101000a81548173ffffffffffffffffffffffffffffffffffffffff021916908373ffffffffffffffffffffffffffffffffffffffff16021790555081600160006101000a81548173ffffffffffffffffffffffffffffffffffffffff021916908373ffffffffffffffffffffffffffffffffffffffff16021790555080601460006101000a81548173ffffffffffffffffffffffffffffffffffffffff021916908373ffffffffffffffffffffffffffffffffffffffff1602179055505050506121a0806101666000396000f3fe608060405234801561001057600080fd5b506004361061018e5760003560e01c806387cf3ef4116100de578063c94f428b11610097578063f072dc8f11610071578063f072dc8f146105c1578063f47c6087146105f5578063f887ea4014610613578063f91fce6c146106475761018e565b8063c94f428b1461053b578063cfc619d014610559578063e713f1271461058d5761018e565b806387cf3ef41461042f578063995c18bf14610463578063a05f990614610481578063b0392fe3146104b5578063c45a0155146104d3578063c5444410146105075761018e565b806328609b651161014b5780634f370c57116101255780634f370c57146103b757806360629486146103d55780636dd14073146103f3578063808fc206146104115761018e565b806328609b6514610347578063304400341461036557806336e9332d146103835761018e565b806312955c131461019357806315afb1531461020b5780631803e2841461023f5780631ccd13fd146102735780631df4ccfc146102f557806327ede85614610313575b600080fd5b610209600480360360808110156101a957600080fd5b81019080803573ffffffffffffffffffffffffffffffffffffffff169060200190929190803573ffffffffffffffffffffffffffffffffffffffff169060200190929190803590602001909291908035906020019092919050505061076c565b005b6102136110ab565b604051808273ffffffffffffffffffffffffffffffffffffffff16815260200191505060405180910390f35b6102476110d1565b604051808273ffffffffffffffffffffffffffffffffffffffff16815260200191505060405180910390f35b6102df6004803603606081101561028957600080fd5b81019080803573ffffffffffffffffffffffffffffffffffffffff169060200190929190803573ffffffffffffffffffffffffffffffffffffffff169060200190929190803590602001909291905050506110d7565b6040518082815260200191505060405180910390f35b6102fd6113f9565b6040518082815260200191505060405180910390f35b61031b6113ff565b604051808273ffffffffffffffffffffffffffffffffffffffff16815260200191505060405180910390f35b61034f611425565b6040518082815260200191505060405180910390f35b61036d61142b565b6040518082815260200191505060405180910390f35b61038b611431565b604051808273ffffffffffffffffffffffffffffffffffffffff16815260200191505060405180910390f35b6103bf611457565b6040518082815260200191505060405180910390f35b6103dd61145d565b6040518082815260200191505060405180910390f35b6103fb611463565b6040518082815260200191505060405180910390f35b610419611469565b6040518082815260200191505060405180910390f35b61043761146f565b604051808273ffffffffffffffffffffffffffffffffffffffff16815260200191505060405180910390f35b61046b611495565b6040518082815260200191505060405180910390f35b61048961149b565b604051808273ffffffffffffffffffffffffffffffffffffffff16815260200191505060405180910390f35b6104bd6114c1565b6040518082815260200191505060405180910390f35b6104db6114c8565b604051808273ffffffffffffffffffffffffffffffffffffffff16815260200191505060405180910390f35b61050f6114ec565b604051808273ffffffffffffffffffffffffffffffffffffffff16815260200191505060405180910390f35b610543611512565b6040518082815260200191505060405180910390f35b610561611518565b604051808273ffffffffffffffffffffffffffffffffffffffff16815260200191505060405180910390f35b61059561153e565b604051808273ffffffffffffffffffffffffffffffffffffffff16815260200191505060405180910390f35b6105c9611564565b604051808273ffffffffffffffffffffffffffffffffffffffff16815260200191505060405180910390f35b6105fd61158a565b6040518082815260200191505060405180910390f35b61061b611590565b604051808273ffffffffffffffffffffffffffffffffffffffff16815260200191505060405180910390f35b61076a600480360361010081101561065e57600080fd5b81019080803573ffffffffffffffffffffffffffffffffffffffff169060200190929190803573ffffffffffffffffffffffffffffffffffffffff169060200190929190803573ffffffffffffffffffffffffffffffffffffffff169060200190929190803573ffffffffffffffffffffffffffffffffffffffff169060200190929190803573ffffffffffffffffffffffffffffffffffffffff169060200190929190803573ffffffffffffffffffffffffffffffffffffffff169060200190929190803573ffffffffffffffffffffffffffffffffffffffff169060200190929190803573ffffffffffffffffffffffffffffffffffffffff1690602001909291905050506115b6565b005b6000620f4240905061077c612126565b6040518060a00160405280600560009054906101000a900473ffffffffffffffffffffffffffffffffffffffff1673ffffffffffffffffffffffffffffffffffffffff1673ffffffffffffffffffffffffffffffffffffffff168152602001600660009054906101000a900473ffffffffffffffffffffffffffffffffffffffff1673ffffffffffffffffffffffffffffffffffffffff1673ffffffffffffffffffffffffffffffffffffffff168152602001600760009054906101000a900473ffffffffffffffffffffffffffffffffffffffff1673ffffffffffffffffffffffffffffffffffffffff1673ffffffffffffffffffffffffffffffffffffffff168152602001600860009054906101000a900473ffffffffffffffffffffffffffffffffffffffff1673ffffffffffffffffffffffffffffffffffffffff1673ffffffffffffffffffffffffffffffffffffffff168152602001600960009054906101000a900473ffffffffffffffffffffffffffffffffffffffff1673ffffffffffffffffffffffffffffffffffffffff1673ffffffffffffffffffffffffffffffffffffffff168152509050610933612148565b61095a8361094c600a548861188b90919063ffffffff16565b61192090919063ffffffff16565b8160006003811061096757fe5b60200201818152505061099783610989600b548861188b90919063ffffffff16565b61192090919063ffffffff16565b816001600381106109a457fe5b6020020181815250506109d4836109c6600c548861188b90919063ffffffff16565b61192090919063ffffffff16565b816002600381106109e157fe5b6020020181815250506109f2612148565b610a1984610a0b600a548861188b90919063ffffffff16565b61192090919063ffffffff16565b81600060038110610a2657fe5b602002018181525050610a5684610a48600b548861188b90919063ffffffff16565b61192090919063ffffffff16565b81600160038110610a6357fe5b602002018181525050610a9384610a85600c548861188b90919063ffffffff16565b61192090919063ffffffff16565b81600260038110610aa057fe5b602002018181525050610ae788600260009054906101000a900473ffffffffffffffffffffffffffffffffffffffff1684600160038110610add57fe5b602002015161196a565b610b2587600260009054906101000a900473ffffffffffffffffffffffffffffffffffffffff1683600160038110610b1b57fe5b602002015161196a565b610b6388600360009054906101000a900473ffffffffffffffffffffffffffffffffffffffff1684600260038110610b5957fe5b602002015161196a565b610ba187600360009054906101000a900473ffffffffffffffffffffffffffffffffffffffff1683600260038110610b9757fe5b602002015161196a565b610bbf888885600060058110610bb357fe5b60200201518989611b4d565b610bdd888885600160058110610bd157fe5b60200201518989611b4d565b610bfb888885600260058110610bef57fe5b60200201518989611b4d565b610c19888885600360058110610c0d57fe5b60200201518989611b4d565b610c37888885600460058110610c2b57fe5b60200201518989611b4d565b82600060058110610c4457fe5b602002015173ffffffffffffffffffffffffffffffffffffffff1663451adf2b898985600060038110610c7357fe5b602002015185600060038110610c8557fe5b60200201516040518563ffffffff1660e01b8152600401808573ffffffffffffffffffffffffffffffffffffffff1681526020018473ffffffffffffffffffffffffffffffffffffffff168152602001838152602001828152602001945050505050600060405180830381600087803b158015610d0157600080fd5b505af1158015610d15573d6000803e3d6000fd5b5050505082600160058110610d2657fe5b602002015173ffffffffffffffffffffffffffffffffffffffff1663451adf2b898985600060038110610d5557fe5b602002015185600060038110610d6757fe5b60200201516040518563ffffffff1660e01b8152600401808573ffffffffffffffffffffffffffffffffffffffff1681526020018473ffffffffffffffffffffffffffffffffffffffff168152602001838152602001828152602001945050505050600060405180830381600087803b158015610de357600080fd5b505af1158015610df7573d6000803e3d6000fd5b5050505082600260058110610e0857fe5b602002015173ffffffffffffffffffffffffffffffffffffffff1663451adf2b898985600060038110610e3757fe5b602002015185600060038110610e4957fe5b60200201516040518563ffffffff1660e01b8152600401808573ffffffffffffffffffffffffffffffffffffffff1681526020018473ffffffffffffffffffffffffffffffffffffffff168152602001838152602001828152602001945050505050600060405180830381600087803b158015610ec557600080fd5b505af1158015610ed9573d6000803e3d6000fd5b5050505082600360058110610eea57fe5b602002015173ffffffffffffffffffffffffffffffffffffffff1663451adf2b898985600060038110610f1957fe5b602002015185600060038110610f2b57fe5b60200201516040518563ffffffff1660e01b8152600401808573ffffffffffffffffffffffffffffffffffffffff1681526020018473ffffffffffffffffffffffffffffffffffffffff168152602001838152602001828152602001945050505050600060405180830381600087803b158015610fa757600080fd5b505af1158015610fbb573d6000803e3d6000fd5b5050505082600460058110610fcc57fe5b602002015173ffffffffffffffffffffffffffffffffffffffff1663451adf2b898985600060038110610ffb57fe5b60200201518560006003811061100d57fe5b60200201516040518563ffffffff1660e01b8152600401808573ffffffffffffffffffffffffffffffffffffffff1681526020018473ffffffffffffffffffffffffffffffffffffffff168152602001838152602001828152602001945050505050600060405180830381600087803b15801561108957600080fd5b505af115801561109d573d6000803e3d6000fd5b505050505050505050505050565b600960009054906101000a900473ffffffffffffffffffffffffffffffffffffffff1681565b61dead81565b600080620f424090506000611109826110fb600e548761188b90919063ffffffff16565b61192090919063ffffffff16565b9050600061113483611126600f548861188b90919063ffffffff16565b61192090919063ffffffff16565b9050600061115f846111516010548961188b90919063ffffffff16565b61192090919063ffffffff16565b9050600061118a8561117c6011548a61188b90919063ffffffff16565b61192090919063ffffffff16565b905060006111b5866111a76012548b61188b90919063ffffffff16565b61192090919063ffffffff16565b90506111c48961dead8361196a565b6111f189600460009054906101000a900473ffffffffffffffffffffffffffffffffffffffff168a611eae565b600460009054906101000a900473ffffffffffffffffffffffffffffffffffffffff1673ffffffffffffffffffffffffffffffffffffffff16638c4c30f88b8b886040518463ffffffff1660e01b8152600401808473ffffffffffffffffffffffffffffffffffffffff1681526020018373ffffffffffffffffffffffffffffffffffffffff1681526020018281526020019350505050600060405180830381600087803b1580156112a257600080fd5b505af11580156112b6573d6000803e3d6000fd5b505050506112e789600260009054906101000a900473ffffffffffffffffffffffffffffffffffffffff168561196a565b61131489600360009054906101000a900473ffffffffffffffffffffffffffffffffffffffff168461196a565b61134189600660009054906101000a900473ffffffffffffffffffffffffffffffffffffffff168a611eae565b600660009054906101000a900473ffffffffffffffffffffffffffffffffffffffff1673ffffffffffffffffffffffffffffffffffffffff1663cfc59d888a866040518363ffffffff1660e01b8152600401808373ffffffffffffffffffffffffffffffffffffffff16815260200182815260200192505050600060405180830381600087803b1580156113d457600080fd5b505af11580156113e8573d6000803e3d6000fd5b505050505050505050509392505050565b600d5481565b600760009054906101000a900473ffffffffffffffffffffffffffffffffffffffff1681565b60105481565b60125481565b600460009054906101000a900473ffffffffffffffffffffffffffffffffffffffff1681565b600f5481565b600a5481565b60135481565b600b5481565b601460009054906101000a900473ffffffffffffffffffffffffffffffffffffffff1681565b600e5481565b600260009054906101000a900473ffffffffffffffffffffffffffffffffffffffff1681565b620f424081565b60008054906101000a900473ffffffffffffffffffffffffffffffffffffffff1681565b600660009054906101000a900473ffffffffffffffffffffffffffffffffffffffff1681565b60115481565b600560009054906101000a900473ffffffffffffffffffffffffffffffffffffffff1681565b600360009054906101000a900473ffffffffffffffffffffffffffffffffffffffff1681565b600860009054906101000a900473ffffffffffffffffffffffffffffffffffffffff1681565b600c5481565b600160009054906101000a900473ffffffffffffffffffffffffffffffffffffffff1681565b601460009054906101000a900473ffffffffffffffffffffffffffffffffffffffff1673ffffffffffffffffffffffffffffffffffffffff163373ffffffffffffffffffffffffffffffffffffffff1614611679576040517f08c379a000000000000000000000000000000000000000000000000000000000815260040180806020018281038252600f8152602001807f4f6e6c792066656520736574746572000000000000000000000000000000000081525060200191505060405180910390fd5b87600260006101000a81548173ffffffffffffffffffffffffffffffffffffffff021916908373ffffffffffffffffffffffffffffffffffffffff16021790555086600360006101000a81548173ffffffffffffffffffffffffffffffffffffffff021916908373ffffffffffffffffffffffffffffffffffffffff16021790555085600460006101000a81548173ffffffffffffffffffffffffffffffffffffffff021916908373ffffffffffffffffffffffffffffffffffffffff16021790555084600560006101000a81548173ffffffffffffffffffffffffffffffffffffffff021916908373ffffffffffffffffffffffffffffffffffffffff16021790555083600660006101000a81548173ffffffffffffffffffffffffffffffffffffffff021916908373ffffffffffffffffffffffffffffffffffffffff16021790555082600760006101000a81548173ffffffffffffffffffffffffffffffffffffffff021916908373ffffffffffffffffffffffffffffffffffffffff16021790555081600860006101000a81548173ffffffffffffffffffffffffffffffffffffffff021916908373ffffffffffffffffffffffffffffffffffffffff16021790555080600960006101000a81548173ffffffffffffffffffffffffffffffffffffffff021916908373ffffffffffffffffffffffffffffffffffffffff1602179055505050505050505050565b6000808214806118a857508282838502925082816118a557fe5b04145b61191a576040517f08c379a00000000000000000000000000000000000000000000000000000000081526004018080602001828103825260148152602001807f64732d6d6174682d6d756c2d6f766572666c6f7700000000000000000000000081525060200191505060405180910390fd5b92915050565b600061196283836040518060400160405280601a81526020017f536166654d6174683a206469766973696f6e206279207a65726f000000000000815250612060565b905092915050565b600060608473ffffffffffffffffffffffffffffffffffffffff1663a9059cbb8585604051602401808373ffffffffffffffffffffffffffffffffffffffff168152602001828152602001925050506040516020818303038152906040529060e01b6020820180517bffffffffffffffffffffffffffffffffffffffffffffffffffffffff83818316178352505050506040518082805190602001908083835b60208310611a2d5780518252602082019150602081019050602083039250611a0a565b6001836020036101000a0380198251168184511680821785525050505050509050019150506000604051808303816000865af19150503d8060008114611a8f576040519150601f19603f3d011682016040523d82523d6000602084013e611a94565b606091505b5091509150818015611ad45750600081511480611ad35750808060200190516020811015611ac157600080fd5b81019080805190602001909291905050505b5b611b46576040517f08c379a000000000000000000000000000000000000000000000000000000000815260040180806020018281038252601f8152602001807f5472616e7366657248656c7065723a205452414e534645525f4641494c45440081525060200191505060405180910390fd5b5050505050565b600073ffffffffffffffffffffffffffffffffffffffff168573ffffffffffffffffffffffffffffffffffffffff16141580611c475750818573ffffffffffffffffffffffffffffffffffffffff1663dd62ed3e30866040518363ffffffff1660e01b8152600401808373ffffffffffffffffffffffffffffffffffffffff1681526020018273ffffffffffffffffffffffffffffffffffffffff1681526020019250505060206040518083038186803b158015611c0a57600080fd5b505afa158015611c1e573d6000803e3d6000fd5b505050506040513d6020811015611c3457600080fd5b8101908080519060200190929190505050105b15611cfa578473ffffffffffffffffffffffffffffffffffffffff1663095ea7b384846040518363ffffffff1660e01b8152600401808373ffffffffffffffffffffffffffffffffffffffff16815260200182815260200192505050602060405180830381600087803b158015611cbd57600080fd5b505af1158015611cd1573d6000803e3d6000fd5b505050506040513d6020811015611ce757600080fd5b8101908080519060200190929190505050505b600073ffffffffffffffffffffffffffffffffffffffff168473ffffffffffffffffffffffffffffffffffffffff16141580611df45750808473ffffffffffffffffffffffffffffffffffffffff1663dd62ed3e30866040518363ffffffff1660e01b8152600401808373ffffffffffffffffffffffffffffffffffffffff1681526020018273ffffffffffffffffffffffffffffffffffffffff1681526020019250505060206040518083038186803b158015611db757600080fd5b505afa158015611dcb573d6000803e3d6000fd5b505050506040513d6020811015611de157600080fd5b8101908080519060200190929190505050105b15611ea7578373ffffffffffffffffffffffffffffffffffffffff1663095ea7b384836040518363ffffffff1660e01b8152600401808373ffffffffffffffffffffffffffffffffffffffff16815260200182815260200192505050602060405180830381600087803b158015611e6a57600080fd5b505af1158015611e7e573d6000803e3d6000fd5b505050506040513d6020811015611e9457600080fd5b8101908080519060200190929190505050505b5050505050565b600073ffffffffffffffffffffffffffffffffffffffff168373ffffffffffffffffffffffffffffffffffffffff16141580611fa85750808373ffffffffffffffffffffffffffffffffffffffff1663dd62ed3e30856040518363ffffffff1660e01b8152600401808373ffffffffffffffffffffffffffffffffffffffff1681526020018273ffffffffffffffffffffffffffffffffffffffff1681526020019250505060206040518083038186803b158015611f6b57600080fd5b505afa158015611f7f573d6000803e3d6000fd5b505050506040513d6020811015611f9557600080fd5b8101908080519060200190929190505050105b1561205b578273ffffffffffffffffffffffffffffffffffffffff1663095ea7b383836040518363ffffffff1660e01b8152600401808373ffffffffffffffffffffffffffffffffffffffff16815260200182815260200192505050602060405180830381600087803b15801561201e57600080fd5b505af1158015612032573d6000803e3d6000fd5b505050506040513d602081101561204857600080fd5b8101908080519060200190929190505050505b505050565b6000808311829061210c576040517f08c379a00000000000000000000000000000000000000000000000000000000081526004018080602001828103825283818151815260200191508051906020019080838360005b838110156120d15780820151818401526020810190506120b6565b50505050905090810190601f1680156120fe5780820380516001836020036101000a031916815260200191505b509250505060405180910390fd5b50600083858161211857fe5b049050809150509392505050565b6040518060a00160405280600590602082028036833780820191505090505090565b604051806060016040528060039060208202803683378082019150509050509056fea2646970667358221220ff74d23bed9a0ed9e713c1257d79c0a0b823b04b564f8246bf55d6d2631d76ba64736f6c634300060c0033",
  "source": "pragma solidity 0.6.12;\n\nimport \"./interfaces/IMoroccoSwapV2Factory.sol\";\nimport \"./interfaces/IERC20.sol\";\nimport \"./interfaces/IBank.sol\";\nimport \"./libraries/TransferHelper.sol\";\nimport \"./libraries/SafeMath.sol\";\n\ncontract MoroccoSwapFeeTransfer {\n    using SafeMathMoroccoSwap for uint256;\n\n    uint256 public constant PERCENT100 = 1000000;\n    address\n        public constant DEADADDRESS = 0x000000000000000000000000000000000000dEaD;\n\n    address public factory;\n    address public router;\n\n    // Global recevier address\n    address public global;\n    address public roulette;\n    address public farm;\n    // Bank address\n    address public kythBank;\n    address public usdtxBank;\n    address public goldxBank;\n    address public btcxBank;\n    address public ethxBank;\n    //Inout fee\n    uint256 public bankFee = 1000;\n    uint256 public globalFee = 7000;\n    uint256 public rouletteFee = 500;\n    uint256 public totalFee = 12500;\n\n    // Swap fee\n    uint256 public sfarmFee = 900;\n    uint256 public sUSDTxFee = 50;\n    uint256 public sglobalFee = 950;\n    uint256 public srouletteFee = 100;\n    uint256 public sLockFee = 500;\n    uint256 public swaptotalFee = 2500;\n\n    address public feeSetter;\n\n    constructor(\n        address _factory,\n        address _router,\n        address _feeSetter\n    ) public {\n        factory = _factory;\n        router = _router;\n        feeSetter = _feeSetter;\n    }\n\n    function takeSwapFee(\n        address lp,\n        address token,\n        uint256 amount\n    ) public returns (uint256) {\n        uint256 PERCENT = PERCENT100;\n        uint256 _sFarmFee = amount.mul(sfarmFee).div(PERCENT);\n        uint256 _sUSDTxFee = amount.mul(sUSDTxFee).div(PERCENT);\n        uint256 _sGlobalFee = amount.mul(sglobalFee).div(PERCENT);\n        uint256 _sRouletteFee = amount.mul(srouletteFee).div(PERCENT);\n        uint256 _sLockFee = amount.mul(sLockFee).div(PERCENT);\n\n        TransferHelper.safeTransfer(token, DEADADDRESS, _sLockFee);\n\n        _approvetokens(token, farm, amount);\n        IFarm(farm).addrewardtoken(lp, token, _sFarmFee);\n\n        TransferHelper.safeTransfer(token, global, _sGlobalFee);\n        TransferHelper.safeTransfer(token, roulette, _sRouletteFee);\n\n        _approvetokens(token, usdtxBank, amount);\n        IBank(usdtxBank).addrewardtoken(token, _sUSDTxFee);\n    }\n\n    function takeLiquidityFee(\n        address _token0,\n        address _token1,\n        uint256 _amount0,\n        uint256 _amount1\n    ) public {\n        uint256 PERCENT = PERCENT100;\n\n        address[5] memory bankFarm = [\n            kythBank,\n            usdtxBank,\n            goldxBank,\n            btcxBank,\n            ethxBank\n        ];\n\n        uint256[3] memory bankFee0;\n        bankFee0[0] = _amount0.mul(bankFee).div(PERCENT);\n        bankFee0[1] = _amount0.mul(globalFee).div(PERCENT); //globalFee0\n        bankFee0[2] = _amount0.mul(rouletteFee).div(PERCENT); //rouletteFee0\n\n        uint256[3] memory bankFee1;\n        bankFee1[0] = _amount1.mul(bankFee).div(PERCENT);\n        bankFee1[1] = _amount1.mul(globalFee).div(PERCENT); //globalFee1\n        bankFee1[2] = _amount1.mul(rouletteFee).div(PERCENT); //rouletteFee1\n\n        TransferHelper.safeTransfer(_token0, global, bankFee0[1]);\n        TransferHelper.safeTransfer(_token1, global, bankFee1[1]);\n\n        TransferHelper.safeTransfer(_token0, roulette, bankFee0[2]);\n        TransferHelper.safeTransfer(_token1, roulette, bankFee1[2]);\n\n        _approvetoken(_token0, _token1, bankFarm[0], _amount0, _amount1);\n        _approvetoken(_token0, _token1, bankFarm[1], _amount0, _amount1);\n        _approvetoken(_token0, _token1, bankFarm[2], _amount0, _amount1);\n        _approvetoken(_token0, _token1, bankFarm[3], _amount0, _amount1);\n        _approvetoken(_token0, _token1, bankFarm[4], _amount0, _amount1);\n\n        IBank(bankFarm[0]).addReward(\n            _token0,\n            _token1,\n            bankFee0[0],\n            bankFee1[0]\n        );\n        IBank(bankFarm[1]).addReward(\n            _token0,\n            _token1,\n            bankFee0[0],\n            bankFee1[0]\n        );\n        IBank(bankFarm[2]).addReward(\n            _token0,\n            _token1,\n            bankFee0[0],\n            bankFee1[0]\n        );\n        IBank(bankFarm[3]).addReward(\n            _token0,\n            _token1,\n            bankFee0[0],\n            bankFee1[0]\n        );\n        IBank(bankFarm[4]).addReward(\n            _token0,\n            _token1,\n            bankFee0[0],\n            bankFee1[0]\n        );\n    }\n\n    function _approvetoken(\n        address _token0,\n        address _token1,\n        address _receiver,\n        uint256 _amount0,\n        uint256 _amount1\n    ) private {\n        if (\n            _token0 != address(0x000) ||\n            IERC20(_token0).allowance(address(this), _receiver) < _amount0\n        ) {\n            IERC20(_token0).approve(_receiver, _amount0);\n        }\n        if (\n            _token1 != address(0x000) ||\n            IERC20(_token1).allowance(address(this), _receiver) < _amount1\n        ) {\n            IERC20(_token1).approve(_receiver, _amount1);\n        }\n    }\n\n    function _approvetokens(\n        address _token,\n        address _receiver,\n        uint256 _amount\n    ) private {\n        if (\n            _token != address(0x000) ||\n            IERC20(_token).allowance(address(this), _receiver) < _amount\n        ) {\n            IERC20(_token).approve(_receiver, _amount);\n        }\n    }\n\n    function configure(\n        address _global,\n        address _roulette,\n        address _farm,\n        address _kythBank,\n        address _usdtxBank,\n        address _goldxBank,\n        address _btcxBank,\n        address _ethxBank\n    ) external {\n        require(msg.sender == feeSetter, \"Only fee setter\");\n\n        global = _global;\n        roulette = _roulette;\n        farm = _farm;\n        kythBank = _kythBank;\n        usdtxBank = _usdtxBank;\n        goldxBank = _goldxBank;\n        btcxBank = _btcxBank;\n        ethxBank = _ethxBank;\n    }\n}\n",
  "sourcePath": "/home/sultana/Desktop/learn/upgradable/spiderSwap/contracts/swap/MoroccoSwapFeeTransfer.sol",
  "compiler": {
    "name": "solc",
    "version": "0.6.12+commit.27d51765.Emscripten.clang"
  },
  "schemaVersion": "3.0.23",
  "updatedAt": "2022-02-11T17:48:15.188Z",
  "devdoc": {
    "kind": "dev",
    "methods": {},
    "version": 1
  },
  "userdoc": {
    "kind": "user",
    "methods": {},
    "version": 1
  }
}