{
  "contractName": "MoroccoSwapFarm",
  "abi": [
    {
      "inputs": [
        {
          "internalType": "address",
          "name": "_factory",
          "type": "address"
        },
        {
          "internalType": "address",
          "name": "_owner",
          "type": "address"
        },
        {
          "internalType": "address",
          "name": "_evangeList",
          "type": "address"
        },
        {
          "internalType": "address",
          "name": "_kyth",
          "type": "address"
        }
      ],
      "stateMutability": "nonpayable",
      "type": "constructor"
    },
    {
      "anonymous": false,
      "inputs": [
        {
          "indexed": false,
          "internalType": "uint256",
          "name": "reward",
          "type": "uint256"
        },
        {
          "indexed": false,
          "internalType": "uint256",
          "name": "id",
          "type": "uint256"
        }
      ],
      "name": "AddEvangeListReward",
      "type": "event"
    },
    {
      "anonymous": false,
      "inputs": [
        {
          "indexed": false,
          "internalType": "uint256",
          "name": "totalReward",
          "type": "uint256"
        },
        {
          "indexed": false,
          "internalType": "uint256",
          "name": "totalPools",
          "type": "uint256"
        },
        {
          "indexed": false,
          "internalType": "uint256",
          "name": "reward",
          "type": "uint256"
        },
        {
          "indexed": false,
          "internalType": "uint256",
          "name": "lossReward",
          "type": "uint256"
        }
      ],
      "name": "AddFarmReward",
      "type": "event"
    },
    {
      "anonymous": false,
      "inputs": [
        {
          "indexed": false,
          "internalType": "contract IERC20",
          "name": "_lpToken",
          "type": "address"
        },
        {
          "indexed": false,
          "internalType": "contract IERC20",
          "name": "_rewardToken0",
          "type": "address"
        },
        {
          "indexed": false,
          "internalType": "contract IERC20",
          "name": "_rewardToken1",
          "type": "address"
        }
      ],
      "name": "AddLpInfo",
      "type": "event"
    },
    {
      "anonymous": false,
      "inputs": [
        {
          "indexed": false,
          "internalType": "contract IERC20",
          "name": "_lpToken",
          "type": "address"
        }
      ],
      "name": "AddLpInfo",
      "type": "event"
    },
    {
      "anonymous": false,
      "inputs": [
        {
          "indexed": false,
          "internalType": "address",
          "name": "_operator",
          "type": "address"
        }
      ],
      "name": "AddOperator",
      "type": "event"
    },
    {
      "anonymous": false,
      "inputs": [
        {
          "indexed": false,
          "internalType": "address",
          "name": "lp",
          "type": "address"
        },
        {
          "indexed": false,
          "internalType": "address",
          "name": "rewardToken0",
          "type": "address"
        },
        {
          "indexed": false,
          "internalType": "address",
          "name": "rewardToken1",
          "type": "address"
        },
        {
          "indexed": false,
          "internalType": "uint256",
          "name": "reward0",
          "type": "uint256"
        },
        {
          "indexed": false,
          "internalType": "uint256",
          "name": "reward1",
          "type": "uint256"
        }
      ],
      "name": "AddReward",
      "type": "event"
    },
    {
      "anonymous": false,
      "inputs": [
        {
          "indexed": false,
          "internalType": "contract IERC20",
          "name": "_lpToken",
          "type": "address"
        }
      ],
      "name": "AddWhiteListPools",
      "type": "event"
    },
    {
      "anonymous": false,
      "inputs": [
        {
          "indexed": true,
          "internalType": "address",
          "name": "user",
          "type": "address"
        },
        {
          "indexed": true,
          "internalType": "uint256",
          "name": "pid",
          "type": "uint256"
        },
        {
          "indexed": false,
          "internalType": "uint256",
          "name": "reward0",
          "type": "uint256"
        },
        {
          "indexed": false,
          "internalType": "uint256",
          "name": "reward1",
          "type": "uint256"
        }
      ],
      "name": "Claim",
      "type": "event"
    },
    {
      "anonymous": false,
      "inputs": [
        {
          "indexed": false,
          "internalType": "address",
          "name": "rewardToken",
          "type": "address"
        },
        {
          "indexed": false,
          "internalType": "uint256",
          "name": "round",
          "type": "uint256"
        },
        {
          "indexed": false,
          "internalType": "uint256",
          "name": "reward",
          "type": "uint256"
        }
      ],
      "name": "ClaimEvangelistKyth",
      "type": "event"
    },
    {
      "anonymous": false,
      "inputs": [
        {
          "indexed": false,
          "internalType": "address",
          "name": "rewardToken",
          "type": "address"
        },
        {
          "indexed": false,
          "internalType": "uint256",
          "name": "pid",
          "type": "uint256"
        },
        {
          "indexed": false,
          "internalType": "uint256",
          "name": "reward",
          "type": "uint256"
        }
      ],
      "name": "ClaimFarmKyth",
      "type": "event"
    },
    {
      "anonymous": false,
      "inputs": [
        {
          "indexed": true,
          "internalType": "address",
          "name": "user",
          "type": "address"
        },
        {
          "indexed": true,
          "internalType": "uint256",
          "name": "pid",
          "type": "uint256"
        },
        {
          "indexed": false,
          "internalType": "uint256",
          "name": "amount",
          "type": "uint256"
        }
      ],
      "name": "Deposit",
      "type": "event"
    },
    {
      "anonymous": false,
      "inputs": [
        {
          "indexed": true,
          "internalType": "address",
          "name": "user",
          "type": "address"
        },
        {
          "indexed": true,
          "internalType": "uint256",
          "name": "pid",
          "type": "uint256"
        },
        {
          "indexed": false,
          "internalType": "uint256",
          "name": "amount",
          "type": "uint256"
        }
      ],
      "name": "EmergencyWithdraw",
      "type": "event"
    },
    {
      "anonymous": false,
      "inputs": [
        {
          "indexed": true,
          "internalType": "address",
          "name": "previousOwner",
          "type": "address"
        },
        {
          "indexed": true,
          "internalType": "address",
          "name": "newOwner",
          "type": "address"
        }
      ],
      "name": "OwnershipTransferred",
      "type": "event"
    },
    {
      "anonymous": false,
      "inputs": [],
      "name": "Paused",
      "type": "event"
    },
    {
      "anonymous": false,
      "inputs": [
        {
          "indexed": false,
          "internalType": "address",
          "name": "_operator",
          "type": "address"
        }
      ],
      "name": "RemoveOperator",
      "type": "event"
    },
    {
      "anonymous": false,
      "inputs": [],
      "name": "UnPaused",
      "type": "event"
    },
    {
      "anonymous": false,
      "inputs": [
        {
          "indexed": true,
          "internalType": "address",
          "name": "user",
          "type": "address"
        },
        {
          "indexed": true,
          "internalType": "uint256",
          "name": "pid",
          "type": "uint256"
        },
        {
          "indexed": false,
          "internalType": "uint256",
          "name": "amount",
          "type": "uint256"
        }
      ],
      "name": "Withdraw",
      "type": "event"
    },
    {
      "inputs": [
        {
          "internalType": "uint256",
          "name": "",
          "type": "uint256"
        }
      ],
      "name": "creditLevel",
      "outputs": [
        {
          "internalType": "uint256",
          "name": "",
          "type": "uint256"
        }
      ],
      "stateMutability": "view",
      "type": "function"
    },
    {
      "inputs": [
        {
          "internalType": "uint256",
          "name": "",
          "type": "uint256"
        }
      ],
      "name": "creditPointsInfo",
      "outputs": [
        {
          "internalType": "uint256",
          "name": "totalCreditsPoints",
          "type": "uint256"
        },
        {
          "internalType": "uint256",
          "name": "amount",
          "type": "uint256"
        }
      ],
      "stateMutability": "view",
      "type": "function"
    },
    {
      "inputs": [],
      "name": "currentId",
      "outputs": [
        {
          "internalType": "uint256",
          "name": "",
          "type": "uint256"
        }
      ],
      "stateMutability": "view",
      "type": "function"
    },
    {
      "inputs": [],
      "name": "evangeList",
      "outputs": [
        {
          "internalType": "address",
          "name": "",
          "type": "address"
        }
      ],
      "stateMutability": "view",
      "type": "function"
    },
    {
      "inputs": [
        {
          "internalType": "address",
          "name": "",
          "type": "address"
        },
        {
          "internalType": "uint256",
          "name": "",
          "type": "uint256"
        }
      ],
      "name": "evangelistInfo",
      "outputs": [
        {
          "internalType": "uint256",
          "name": "points",
          "type": "uint256"
        },
        {
          "internalType": "uint256",
          "name": "earnAmount",
          "type": "uint256"
        },
        {
          "internalType": "bool",
          "name": "withdrawn",
          "type": "bool"
        }
      ],
      "stateMutability": "view",
      "type": "function"
    },
    {
      "inputs": [],
      "name": "kyth",
      "outputs": [
        {
          "internalType": "contract IERC20",
          "name": "",
          "type": "address"
        }
      ],
      "stateMutability": "view",
      "type": "function"
    },
    {
      "inputs": [
        {
          "internalType": "address",
          "name": "",
          "type": "address"
        }
      ],
      "name": "lpIndex",
      "outputs": [
        {
          "internalType": "uint256",
          "name": "",
          "type": "uint256"
        }
      ],
      "stateMutability": "view",
      "type": "function"
    },
    {
      "inputs": [
        {
          "internalType": "address",
          "name": "",
          "type": "address"
        }
      ],
      "name": "lpStatus",
      "outputs": [
        {
          "internalType": "bool",
          "name": "",
          "type": "bool"
        }
      ],
      "stateMutability": "view",
      "type": "function"
    },
    {
      "inputs": [
        {
          "internalType": "address",
          "name": "",
          "type": "address"
        }
      ],
      "name": "operator",
      "outputs": [
        {
          "internalType": "bool",
          "name": "",
          "type": "bool"
        }
      ],
      "stateMutability": "view",
      "type": "function"
    },
    {
      "inputs": [],
      "name": "owner",
      "outputs": [
        {
          "internalType": "address",
          "name": "",
          "type": "address"
        }
      ],
      "stateMutability": "view",
      "type": "function"
    },
    {
      "inputs": [],
      "name": "paused",
      "outputs": [
        {
          "internalType": "bool",
          "name": "",
          "type": "bool"
        }
      ],
      "stateMutability": "view",
      "type": "function"
    },
    {
      "inputs": [
        {
          "internalType": "uint256",
          "name": "",
          "type": "uint256"
        }
      ],
      "name": "poolInfo",
      "outputs": [
        {
          "internalType": "contract IERC20",
          "name": "lpToken",
          "type": "address"
        },
        {
          "internalType": "uint256",
          "name": "lastRewardBlock",
          "type": "uint256"
        },
        {
          "internalType": "uint256",
          "name": "accPerShare0",
          "type": "uint256"
        },
        {
          "internalType": "uint256",
          "name": "accPerShare1",
          "type": "uint256"
        },
        {
          "internalType": "contract IERC20",
          "name": "rewardToken0",
          "type": "address"
        },
        {
          "internalType": "contract IERC20",
          "name": "rewardToken1",
          "type": "address"
        },
        {
          "internalType": "uint256",
          "name": "accFarmPerShare",
          "type": "uint256"
        }
      ],
      "stateMutability": "view",
      "type": "function"
    },
    {
      "inputs": [],
      "name": "renounceOwnership",
      "outputs": [],
      "stateMutability": "nonpayable",
      "type": "function"
    },
    {
      "inputs": [],
      "name": "totalWhiteListedPool",
      "outputs": [
        {
          "internalType": "uint256",
          "name": "",
          "type": "uint256"
        }
      ],
      "stateMutability": "view",
      "type": "function"
    },
    {
      "inputs": [
        {
          "internalType": "address",
          "name": "newOwner",
          "type": "address"
        }
      ],
      "name": "transferOwnership",
      "outputs": [],
      "stateMutability": "nonpayable",
      "type": "function"
    },
    {
      "inputs": [
        {
          "internalType": "uint256",
          "name": "",
          "type": "uint256"
        },
        {
          "internalType": "address",
          "name": "",
          "type": "address"
        }
      ],
      "name": "userInfo",
      "outputs": [
        {
          "internalType": "uint256",
          "name": "amount",
          "type": "uint256"
        },
        {
          "internalType": "uint256",
          "name": "rewardDebt0",
          "type": "uint256"
        },
        {
          "internalType": "uint256",
          "name": "rewardDebt1",
          "type": "uint256"
        },
        {
          "internalType": "uint256",
          "name": "rewardFarmDebt",
          "type": "uint256"
        },
        {
          "internalType": "uint256",
          "name": "rewardKythDebt",
          "type": "uint256"
        }
      ],
      "stateMutability": "view",
      "type": "function"
    },
    {
      "inputs": [
        {
          "internalType": "address",
          "name": "",
          "type": "address"
        }
      ],
      "name": "whiteListedPool",
      "outputs": [
        {
          "internalType": "bool",
          "name": "",
          "type": "bool"
        }
      ],
      "stateMutability": "view",
      "type": "function"
    },
    {
      "inputs": [
        {
          "internalType": "contract IERC20[]",
          "name": "_lpToken",
          "type": "address[]"
        }
      ],
      "name": "addWhiteListLPInfo",
      "outputs": [],
      "stateMutability": "nonpayable",
      "type": "function"
    },
    {
      "inputs": [
        {
          "internalType": "uint256",
          "name": "totalReward",
          "type": "uint256"
        }
      ],
      "name": "addFarmReward",
      "outputs": [],
      "stateMutability": "nonpayable",
      "type": "function"
    },
    {
      "inputs": [
        {
          "internalType": "contract IERC20",
          "name": "_lpToken",
          "type": "address"
        },
        {
          "internalType": "contract IERC20",
          "name": "_rewardToken0",
          "type": "address"
        },
        {
          "internalType": "contract IERC20",
          "name": "_rewardToken1",
          "type": "address"
        }
      ],
      "name": "addLPInfo",
      "outputs": [],
      "stateMutability": "nonpayable",
      "type": "function"
    },
    {
      "inputs": [
        {
          "internalType": "address",
          "name": "_lp",
          "type": "address"
        },
        {
          "internalType": "address",
          "name": "token",
          "type": "address"
        },
        {
          "internalType": "uint256",
          "name": "amount",
          "type": "uint256"
        }
      ],
      "name": "addrewardtoken",
      "outputs": [],
      "stateMutability": "nonpayable",
      "type": "function"
    },
    {
      "inputs": [
        {
          "internalType": "address",
          "name": "_lp",
          "type": "address"
        },
        {
          "internalType": "address",
          "name": "token0",
          "type": "address"
        },
        {
          "internalType": "address",
          "name": "token1",
          "type": "address"
        },
        {
          "internalType": "uint256",
          "name": "amount0",
          "type": "uint256"
        },
        {
          "internalType": "uint256",
          "name": "amount1",
          "type": "uint256"
        }
      ],
      "name": "addReward",
      "outputs": [],
      "stateMutability": "nonpayable",
      "type": "function"
    },
    {
      "inputs": [
        {
          "internalType": "uint256",
          "name": "_pid",
          "type": "uint256"
        },
        {
          "internalType": "uint256",
          "name": "_amount",
          "type": "uint256"
        }
      ],
      "name": "deposit",
      "outputs": [],
      "stateMutability": "nonpayable",
      "type": "function"
    },
    {
      "inputs": [
        {
          "internalType": "uint256",
          "name": "_pid",
          "type": "uint256"
        }
      ],
      "name": "claimReward",
      "outputs": [],
      "stateMutability": "nonpayable",
      "type": "function"
    },
    {
      "inputs": [
        {
          "internalType": "uint256",
          "name": "_pid",
          "type": "uint256"
        }
      ],
      "name": "claimFarmKyth",
      "outputs": [],
      "stateMutability": "nonpayable",
      "type": "function"
    },
    {
      "inputs": [
        {
          "internalType": "uint256",
          "name": "_pid",
          "type": "uint256"
        },
        {
          "internalType": "uint256",
          "name": "_amount",
          "type": "uint256"
        }
      ],
      "name": "withdraw",
      "outputs": [],
      "stateMutability": "nonpayable",
      "type": "function"
    },
    {
      "inputs": [
        {
          "internalType": "uint256",
          "name": "_pid",
          "type": "uint256"
        }
      ],
      "name": "emergencyWithdraw",
      "outputs": [],
      "stateMutability": "nonpayable",
      "type": "function"
    },
    {
      "inputs": [],
      "name": "poolLength",
      "outputs": [
        {
          "internalType": "uint256",
          "name": "",
          "type": "uint256"
        }
      ],
      "stateMutability": "view",
      "type": "function"
    },
    {
      "inputs": [],
      "name": "pause",
      "outputs": [],
      "stateMutability": "nonpayable",
      "type": "function"
    },
    {
      "inputs": [],
      "name": "unPause",
      "outputs": [],
      "stateMutability": "nonpayable",
      "type": "function"
    },
    {
      "inputs": [
        {
          "internalType": "address",
          "name": "_addr",
          "type": "address"
        }
      ],
      "name": "addOperator",
      "outputs": [],
      "stateMutability": "nonpayable",
      "type": "function"
    },
    {
      "inputs": [
        {
          "internalType": "address",
          "name": "_addr",
          "type": "address"
        }
      ],
      "name": "removeOperator",
      "outputs": [],
      "stateMutability": "nonpayable",
      "type": "function"
    },
    {
      "inputs": [
        {
          "internalType": "uint256",
          "name": "totalReward",
          "type": "uint256"
        }
      ],
      "name": "addEvangeListReward",
      "outputs": [],
      "stateMutability": "nonpayable",
      "type": "function"
    },
    {
      "inputs": [
        {
          "internalType": "uint256",
          "name": "round",
          "type": "uint256"
        }
      ],
      "name": "claimEvangelistKyth",
      "outputs": [],
      "stateMutability": "nonpayable",
      "type": "function"
    },
    {
      "inputs": [
        {
          "internalType": "address",
          "name": "_evange",
          "type": "address"
        }
      ],
      "name": "setEvangelist",
      "outputs": [],
      "stateMutability": "nonpayable",
      "type": "function"
    },
    {
      "inputs": [
        {
          "internalType": "uint256",
          "name": "round",
          "type": "uint256"
        },
        {
          "internalType": "address",
          "name": "_userAddr",
          "type": "address"
        }
      ],
      "name": "getEvangeListReward",
      "outputs": [
        {
          "internalType": "uint256",
          "name": "reward",
          "type": "uint256"
        }
      ],
      "stateMutability": "view",
      "type": "function"
    }
  ],
  "bytecode": "0x60806040526001600a55604051806101400160405280600160ff168152602001600260ff168152602001600360ff168152602001600560ff168152602001600860ff168152602001600960ff168152602001600c60ff168152602001600f60ff168152602001601460ff168152602001601960ff16815250600b90600a62000089929190620006b4565b503480156200009757600080fd5b5060405162005d0738038062005d0783398181016040526080811015620000bd57600080fd5b81019080805190602001909291908051906020019092919080519060200190929190805190602001909291905050506000620000fe6200047e60201b60201c565b9050806000806101000a81548173ffffffffffffffffffffffffffffffffffffffff021916908373ffffffffffffffffffffffffffffffffffffffff1602179055508073ffffffffffffffffffffffffffffffffffffffff16600073ffffffffffffffffffffffffffffffffffffffff167f8be0079c531659141344cd1fd0a4f28419497f9722a3daafe3b4186f6b6457e060405160405180910390a350600073ffffffffffffffffffffffffffffffffffffffff168473ffffffffffffffffffffffffffffffffffffffff16141562000240576040517f08c379a000000000000000000000000000000000000000000000000000000000815260040180806020018281038252600c8152602001807f7a65726f2061646472657373000000000000000000000000000000000000000081525060200191505060405180910390fd5b600073ffffffffffffffffffffffffffffffffffffffff168373ffffffffffffffffffffffffffffffffffffffff161415620002e4576040517f08c379a000000000000000000000000000000000000000000000000000000000815260040180806020018281038252600c8152602001807f7a65726f2061646472657373000000000000000000000000000000000000000081525060200191505060405180910390fd5b6001600560008673ffffffffffffffffffffffffffffffffffffffff1673ffffffffffffffffffffffffffffffffffffffff16815260200190815260200160002060006101000a81548160ff0219169083151502179055506001600560008573ffffffffffffffffffffffffffffffffffffffff1673ffffffffffffffffffffffffffffffffffffffff16815260200190815260200160002060006101000a81548160ff02191690831515021790555081600960006101000a81548173ffffffffffffffffffffffffffffffffffffffff021916908373ffffffffffffffffffffffffffffffffffffffff160217905550620003e6836200048660201b60201c565b7f4c141abccf173677929dea054f218ed87362117834a8869ec9f68d8bdaaea1dc84604051808273ffffffffffffffffffffffffffffffffffffffff16815260200191505060405180910390a180600660006101000a81548173ffffffffffffffffffffffffffffffffffffffff021916908373ffffffffffffffffffffffffffffffffffffffff160217905550505050506200072a565b600033905090565b620004966200047e60201b60201c565b73ffffffffffffffffffffffffffffffffffffffff16620004bc6200068b60201b60201c565b73ffffffffffffffffffffffffffffffffffffffff161462000546576040517f08c379a00000000000000000000000000000000000000000000000000000000081526004018080602001828103825260208152602001807f4f776e61626c653a2063616c6c6572206973206e6f7420746865206f776e657281525060200191505060405180910390fd5b600073ffffffffffffffffffffffffffffffffffffffff168173ffffffffffffffffffffffffffffffffffffffff161415620005ce576040517f08c379a000000000000000000000000000000000000000000000000000000000815260040180806020018281038252602681526020018062005ce16026913960400191505060405180910390fd5b8073ffffffffffffffffffffffffffffffffffffffff1660008054906101000a900473ffffffffffffffffffffffffffffffffffffffff1673ffffffffffffffffffffffffffffffffffffffff167f8be0079c531659141344cd1fd0a4f28419497f9722a3daafe3b4186f6b6457e060405160405180910390a3806000806101000a81548173ffffffffffffffffffffffffffffffffffffffff021916908373ffffffffffffffffffffffffffffffffffffffff16021790555050565b60008060009054906101000a900473ffffffffffffffffffffffffffffffffffffffff16905090565b828054828255906000526020600020908101928215620006f8579160200282015b82811115620006f7578251829060ff16905591602001919060010190620006d5565b5b5090506200070791906200070b565b5090565b5b80821115620007265760008160009055506001016200070c565b5090565b6155a7806200073a6000396000f3fe608060405234801561001057600080fd5b506004361061021c5760003560e01c806393f1a40b11610125578063be187d20116100ad578063e0f2744b1161007c578063e0f2744b14610ac7578063e2bbb15814610b29578063e4e3bd4214610b61578063f2fde38b14610b8f578063f7b188a514610bd35761021c565b8063be187d2014610985578063ca278f47146109f7578063d353684414610a51578063e00dd16114610aa95761021c565b8063a826f13b116100f4578063a826f13b1461082e578063ac8a584a14610877578063acedaf43146108bb578063ae169a5014610915578063b4451709146109435761021c565b806393f1a40b146106f45780639870d7fe146107725780639a307391146107b6578063a0199ff4146108105761021c565b806357e549f0116101a8578063715018a611610177578063715018a6146105a65780638456cb59146105b05780638c4c30f8146105ba5780638da5cb5b146106285780638f5f5ccf1461065c5761021c565b806357e549f0146104a55780635c975abb146104d95780635e37e66a146104f95780636eb47e31146105725761021c565b8063441a3e70116101ef578063441a3e701461039f5780634ca670e9146103d75780634d44eb1f1461040557806350929c17146104335780635312ea8e146104775761021c565b80630699281314610221578063081e3eda1461024f5780631526fe271461026d5780631e3abbcb1461031b575b600080fd5b61024d6004803603602081101561023757600080fd5b8101908080359060200190929190505050610bdd565b005b6102576110bf565b6040518082815260200191505060405180910390f35b6102996004803603602081101561028357600080fd5b81019080803590602001909291905050506110cc565b604051808873ffffffffffffffffffffffffffffffffffffffff1681526020018781526020018681526020018581526020018473ffffffffffffffffffffffffffffffffffffffff1681526020018373ffffffffffffffffffffffffffffffffffffffff16815260200182815260200197505050505050505060405180910390f35b61039d6004803603606081101561033157600080fd5b81019080803573ffffffffffffffffffffffffffffffffffffffff169060200190929190803573ffffffffffffffffffffffffffffffffffffffff169060200190929190803573ffffffffffffffffffffffffffffffffffffffff16906020019092919050505061117b565b005b6103d5600480360360408110156103b557600080fd5b810190808035906020019092919080359060200190929190505050611565565b005b610403600480360360208110156103ed57600080fd5b8101908080359060200190929190505050611977565b005b6104316004803603602081101561041b57600080fd5b8101908080359060200190929190505050611c93565b005b6104756004803603602081101561044957600080fd5b81019080803573ffffffffffffffffffffffffffffffffffffffff169060200190929190505050611f81565b005b6104a36004803603602081101561048d57600080fd5b8101908080359060200190929190505050612127565b005b6104ad6122e1565b604051808273ffffffffffffffffffffffffffffffffffffffff16815260200191505060405180910390f35b6104e1612307565b60405180821515815260200191505060405180910390f35b6105706004803603602081101561050f57600080fd5b810190808035906020019064010000000081111561052c57600080fd5b82018360208201111561053e57600080fd5b8035906020019184602083028401116401000000008311171561056057600080fd5b909192939192939050505061231a565b005b61057a612584565b604051808273ffffffffffffffffffffffffffffffffffffffff16815260200191505060405180910390f35b6105ae6125aa565b005b6105b8612717565b005b610626600480360360608110156105d057600080fd5b81019080803573ffffffffffffffffffffffffffffffffffffffff169060200190929190803573ffffffffffffffffffffffffffffffffffffffff169060200190929190803590602001909291905050506128a2565b005b610630612ebb565b604051808273ffffffffffffffffffffffffffffffffffffffff16815260200191505060405180910390f35b6106f2600480360360a081101561067257600080fd5b81019080803573ffffffffffffffffffffffffffffffffffffffff169060200190929190803573ffffffffffffffffffffffffffffffffffffffff169060200190929190803573ffffffffffffffffffffffffffffffffffffffff1690602001909291908035906020019092919080359060200190929190505050612ee4565b005b6107406004803603604081101561070a57600080fd5b8101908080359060200190929190803573ffffffffffffffffffffffffffffffffffffffff169060200190929190505050613623565b604051808681526020018581526020018481526020018381526020018281526020019550505050505060405180910390f35b6107b46004803603602081101561078857600080fd5b81019080803573ffffffffffffffffffffffffffffffffffffffff169060200190929190505050613666565b005b6107f8600480360360208110156107cc57600080fd5b81019080803573ffffffffffffffffffffffffffffffffffffffff1690602001909291905050506137bd565b60405180821515815260200191505060405180910390f35b6108186137dd565b6040518082815260200191505060405180910390f35b61085a6004803603602081101561084457600080fd5b81019080803590602001909291905050506137e3565b604051808381526020018281526020019250505060405180910390f35b6108b96004803603602081101561088d57600080fd5b81019080803573ffffffffffffffffffffffffffffffffffffffff169060200190929190505050613807565b005b6108fd600480360360208110156108d157600080fd5b81019080803573ffffffffffffffffffffffffffffffffffffffff16906020019092919050505061395e565b60405180821515815260200191505060405180910390f35b6109416004803603602081101561092b57600080fd5b810190808035906020019092919050505061397e565b005b61096f6004803603602081101561095957600080fd5b8101908080359060200190929190505050613cd6565b6040518082815260200191505060405180910390f35b6109d16004803603604081101561099b57600080fd5b81019080803573ffffffffffffffffffffffffffffffffffffffff16906020019092919080359060200190929190505050613cf7565b604051808481526020018381526020018215158152602001935050505060405180910390f35b610a3960048036036020811015610a0d57600080fd5b81019080803573ffffffffffffffffffffffffffffffffffffffff169060200190929190505050613d3b565b60405180821515815260200191505060405180910390f35b610a9360048036036020811015610a6757600080fd5b81019080803573ffffffffffffffffffffffffffffffffffffffff169060200190929190505050613d5b565b6040518082815260200191505060405180910390f35b610ab1613d73565b6040518082815260200191505060405180910390f35b610b1360048036036040811015610add57600080fd5b8101908080359060200190929190803573ffffffffffffffffffffffffffffffffffffffff169060200190929190505050613d79565b6040518082815260200191505060405180910390f35b610b5f60048036036040811015610b3f57600080fd5b810190808035906020019092919080359060200190929190505050613e27565b005b610b8d60048036036020811015610b7757600080fd5b8101908080359060200190929190505050614161565b005b610bd160048036036020811015610ba557600080fd5b81019080803573ffffffffffffffffffffffffffffffffffffffff169060200190929190505050614602565b005b610bdb6147f4565b005b600560003373ffffffffffffffffffffffffffffffffffffffff1673ffffffffffffffffffffffffffffffffffffffff16815260200190815260200160002060009054906101000a900460ff16610c9c576040517f08c379a000000000000000000000000000000000000000000000000000000000815260040180806020018281038252600d8152602001807f6f6e6c79206f70657261746f720000000000000000000000000000000000000081525060200191505060405180910390fd5b6000600854905060008111610d19576040517f08c379a00000000000000000000000000000000000000000000000000000000081526004018080602001828103825260128152602001807f706f6f6c206c69737420697320656d707479000000000000000000000000000081525060200191505060405180910390fd5b600660009054906101000a900473ffffffffffffffffffffffffffffffffffffffff1673ffffffffffffffffffffffffffffffffffffffff166323b872dd3330856040518463ffffffff1660e01b8152600401808473ffffffffffffffffffffffffffffffffffffffff1681526020018373ffffffffffffffffffffffffffffffffffffffff1681526020018281526020019350505050602060405180830381600087803b158015610dca57600080fd5b505af1158015610dde573d6000803e3d6000fd5b505050506040513d6020811015610df457600080fd5b8101908080519060200190929190505050506000610e1b828461497e90919063ffffffff16565b9050600080600090505b83811015610f9057600060018281548110610e3c57fe5b9060005260206000209060070201905060008160000160009054906101000a900473ffffffffffffffffffffffffffffffffffffffff1673ffffffffffffffffffffffffffffffffffffffff166370a08231306040518263ffffffff1660e01b8152600401808273ffffffffffffffffffffffffffffffffffffffff16815260200191505060206040518083038186803b158015610ed957600080fd5b505afa158015610eed573d6000803e3d6000fd5b505050506040513d6020811015610f0357600080fd5b8101908080519060200190929190505050905060008114610f6b57610f5e610f4b82610f3d64e8d4a5100089614a0790919063ffffffff16565b61497e90919063ffffffff16565b8360060154614a8d90919063ffffffff16565b8260060181905550610f81565b610f7e8585614a8d90919063ffffffff16565b93505b50508080600101915050610e25565b50600081111561106a57600660009054906101000a900473ffffffffffffffffffffffffffffffffffffffff1673ffffffffffffffffffffffffffffffffffffffff1663a9059cbb33836040518363ffffffff1660e01b8152600401808373ffffffffffffffffffffffffffffffffffffffff16815260200182815260200192505050602060405180830381600087803b15801561102d57600080fd5b505af1158015611041573d6000803e3d6000fd5b505050506040513d602081101561105757600080fd5b8101908080519060200190929190505050505b7f9c84df2ff29f538b80b3fa12076c71bab468faeba60879428b2bd01844d00be6848484846040518085815260200184815260200183815260200182815260200194505050505060405180910390a150505050565b6000600180549050905090565b600181815481106110d957fe5b90600052602060002090600702016000915090508060000160009054906101000a900473ffffffffffffffffffffffffffffffffffffffff16908060010154908060020154908060030154908060040160009054906101000a900473ffffffffffffffffffffffffffffffffffffffff16908060050160009054906101000a900473ffffffffffffffffffffffffffffffffffffffff16908060060154905087565b600560003373ffffffffffffffffffffffffffffffffffffffff1673ffffffffffffffffffffffffffffffffffffffff16815260200190815260200160002060009054906101000a900460ff1661123a576040517f08c379a000000000000000000000000000000000000000000000000000000000815260040180806020018281038252600d8152602001807f6f6e6c79206f70657261746f720000000000000000000000000000000000000081525060200191505060405180910390fd5b600460008473ffffffffffffffffffffffffffffffffffffffff1673ffffffffffffffffffffffffffffffffffffffff16815260200190815260200160002060009054906101000a900460ff166115605760006112956110bf565b905060016040518060e001604052808673ffffffffffffffffffffffffffffffffffffffff16815260200143815260200160008152602001600081526020018573ffffffffffffffffffffffffffffffffffffffff1681526020018473ffffffffffffffffffffffffffffffffffffffff1681526020016000815250908060018154018082558091505060019003906000526020600020906007020160009091909190915060008201518160000160006101000a81548173ffffffffffffffffffffffffffffffffffffffff021916908373ffffffffffffffffffffffffffffffffffffffff16021790555060208201518160010155604082015181600201556060820151816003015560808201518160040160006101000a81548173ffffffffffffffffffffffffffffffffffffffff021916908373ffffffffffffffffffffffffffffffffffffffff16021790555060a08201518160050160006101000a81548173ffffffffffffffffffffffffffffffffffffffff021916908373ffffffffffffffffffffffffffffffffffffffff16021790555060c08201518160060155505080600360008673ffffffffffffffffffffffffffffffffffffffff1673ffffffffffffffffffffffffffffffffffffffff168152602001908152602001600020819055506001600460008673ffffffffffffffffffffffffffffffffffffffff1673ffffffffffffffffffffffffffffffffffffffff16815260200190815260200160002060006101000a81548160ff0219169083151502179055507f3fd5169d67ebfb26d143c5f71959a5a44f3f6c095295bc8669214aa7de5ddf06848484604051808473ffffffffffffffffffffffffffffffffffffffff1681526020018373ffffffffffffffffffffffffffffffffffffffff1681526020018273ffffffffffffffffffffffffffffffffffffffff168152602001935050505060405180910390a1505b505050565b600060149054906101000a900460ff16156115e8576040517f08c379a000000000000000000000000000000000000000000000000000000000815260040180806020018281038252600f8152602001807f636f6e7472616374204c6f636b6564000000000000000000000000000000000081525060200191505060405180910390fd5b816115f16110bf565b8110611665576040517f08c379a000000000000000000000000000000000000000000000000000000000815260040180806020018281038252600e8152602001807f706f6f6c206e6f7420657869737400000000000000000000000000000000000081525060200191505060405180910390fd5b600082116116db576040517f08c379a000000000000000000000000000000000000000000000000000000000815260040180806020018281038252600b8152602001807f7a65726f20616d6f756e7400000000000000000000000000000000000000000081525060200191505060405180910390fd5b6000600184815481106116ea57fe5b9060005260206000209060070201905060006002600086815260200190815260200160002060003373ffffffffffffffffffffffffffffffffffffffff1673ffffffffffffffffffffffffffffffffffffffff168152602001908152602001600020905083816000015410156117c8576040517f08c379a00000000000000000000000000000000000000000000000000000000081526004018080602001828103825260128152602001807f77697468647261773a206e6f7420676f6f64000000000000000000000000000081525060200191505060405180910390fd5b600081600001541115611879576117de8561397e565b60076000600187815481106117ef57fe5b906000526020600020906007020160000160009054906101000a900473ffffffffffffffffffffffffffffffffffffffff1673ffffffffffffffffffffffffffffffffffffffff1673ffffffffffffffffffffffffffffffffffffffff16815260200190815260200160002060009054906101000a900460ff16156118785761187785611977565b5b5b611890848260000154614b1590919063ffffffff16565b81600001819055506118ca64e8d4a510006118bc84600201548460000154614a0790919063ffffffff16565b61497e90919063ffffffff16565b816001018190555061192133858460000160009054906101000a900473ffffffffffffffffffffffffffffffffffffffff1673ffffffffffffffffffffffffffffffffffffffff16614b989092919063ffffffff16565b843373ffffffffffffffffffffffffffffffffffffffff167ff279e6a1f5e320cca91135676d9cb6e44ca8a08c0b88342bcdb1144f6511b568866040518082815260200191505060405180910390a35050505050565b600060149054906101000a900460ff16156119fa576040517f08c379a000000000000000000000000000000000000000000000000000000000815260040180806020018281038252600f8152602001807f636f6e7472616374204c6f636b6564000000000000000000000000000000000081525060200191505060405180910390fd5b6007600060018381548110611a0b57fe5b906000526020600020906007020160000160009054906101000a900473ffffffffffffffffffffffffffffffffffffffff1673ffffffffffffffffffffffffffffffffffffffff1673ffffffffffffffffffffffffffffffffffffffff16815260200190815260200160002060009054906101000a900460ff16611af7576040517f08c379a00000000000000000000000000000000000000000000000000000000081526004018080602001828103825260128152602001807f506f6f6c206e6f742077686974656c697374000000000000000000000000000081525060200191505060405180910390fd5b6000339050600060018381548110611b0b57fe5b9060005260206000209060070201905060006002600085815260200190815260200160002060008473ffffffffffffffffffffffffffffffffffffffff1673ffffffffffffffffffffffffffffffffffffffff168152602001908152602001600020905060008082600001541115611bf557611bc58260030154611bb764e8d4a51000611ba987600601548760000154614a0790919063ffffffff16565b61497e90919063ffffffff16565b614b1590919063ffffffff16565b9050611bf4600660009054906101000a900473ffffffffffffffffffffffffffffffffffffffff168583614c3a565b5b611c2764e8d4a51000611c1985600601548560000154614a0790919063ffffffff16565b61497e90919063ffffffff16565b82600301819055507fea2ff4787132288f23222a4b2398250ecc7447e17933a3f85961386a34dc37fa848683604051808473ffffffffffffffffffffffffffffffffffffffff168152602001838152602001828152602001935050505060405180910390a15050505050565b600060149054906101000a900460ff1615611d16576040517f08c379a000000000000000000000000000000000000000000000000000000000815260040180806020018281038252600f8152602001807f636f6e7472616374204c6f636b6564000000000000000000000000000000000081525060200191505060405180910390fd5b600560003373ffffffffffffffffffffffffffffffffffffffff1673ffffffffffffffffffffffffffffffffffffffff16815260200190815260200160002060009054906101000a900460ff16611dd5576040517f08c379a000000000000000000000000000000000000000000000000000000000815260040180806020018281038252600d8152602001807f6f6e6c79206f70657261746f720000000000000000000000000000000000000081525060200191505060405180910390fd5b600660009054906101000a900473ffffffffffffffffffffffffffffffffffffffff1673ffffffffffffffffffffffffffffffffffffffff166323b872dd3330846040518463ffffffff1660e01b8152600401808473ffffffffffffffffffffffffffffffffffffffff1681526020018373ffffffffffffffffffffffffffffffffffffffff1681526020018281526020019350505050602060405180830381600087803b158015611e8657600080fd5b505af1158015611e9a573d6000803e3d6000fd5b505050506040513d6020811015611eb057600080fd5b8101908080519060200190929190505050506001600a54148015611eec57506000600c6000600a54815260200190815260200160002060010154145b15611f135780600c6000600a54815260200190815260200160002060010181905550611f3d565b6001600a5401600a8190555080600c6000600a548152602001908152602001600020600101819055505b7fbba294eef40b28432c4b2bc13969d97cb77c5d6d38963b3519e3fff666dfdf5a81600a54604051808381526020018281526020019250505060405180910390a150565b600560003373ffffffffffffffffffffffffffffffffffffffff1673ffffffffffffffffffffffffffffffffffffffff16815260200190815260200160002060009054906101000a900460ff16612040576040517f08c379a000000000000000000000000000000000000000000000000000000000815260040180806020018281038252600d8152602001807f6f6e6c79206f70657261746f720000000000000000000000000000000000000081525060200191505060405180910390fd5b600073ffffffffffffffffffffffffffffffffffffffff168173ffffffffffffffffffffffffffffffffffffffff1614156120e3576040517f08c379a000000000000000000000000000000000000000000000000000000000815260040180806020018281038252600c8152602001807f5a65726f2061646472657373000000000000000000000000000000000000000081525060200191505060405180910390fd5b80600960006101000a81548173ffffffffffffffffffffffffffffffffffffffff021916908373ffffffffffffffffffffffffffffffffffffffff16021790555050565b806121306110bf565b81106121a4576040517f08c379a000000000000000000000000000000000000000000000000000000000815260040180806020018281038252600e8152602001807f706f6f6c206e6f7420657869737400000000000000000000000000000000000081525060200191505060405180910390fd5b6000600183815481106121b357fe5b9060005260206000209060070201905060006002600085815260200190815260200160002060003373ffffffffffffffffffffffffffffffffffffffff1673ffffffffffffffffffffffffffffffffffffffff168152602001908152602001600020905061226a3382600001548460000160009054906101000a900473ffffffffffffffffffffffffffffffffffffffff1673ffffffffffffffffffffffffffffffffffffffff16614b989092919063ffffffff16565b833373ffffffffffffffffffffffffffffffffffffffff167fbb757047c2b5f3974fe26b7c10f732e7bce710b0952a71082702781e62ae059583600001546040518082815260200191505060405180910390a360008160000181905550600081600101819055506000816002018190555050505050565b600960009054906101000a900473ffffffffffffffffffffffffffffffffffffffff1681565b600060149054906101000a900460ff1681565b600560003373ffffffffffffffffffffffffffffffffffffffff1673ffffffffffffffffffffffffffffffffffffffff16815260200190815260200160002060009054906101000a900460ff166123d9576040517f08c379a000000000000000000000000000000000000000000000000000000000815260040180806020018281038252600d8152602001807f6f6e6c79206f70657261746f720000000000000000000000000000000000000081525060200191505060405180910390fd5b60005b8282905081101561257f57600760008484848181106123f757fe5b9050602002013573ffffffffffffffffffffffffffffffffffffffff1673ffffffffffffffffffffffffffffffffffffffff1673ffffffffffffffffffffffffffffffffffffffff16815260200190815260200160002060009054906101000a900460ff166125725760016007600085858581811061247257fe5b9050602002013573ffffffffffffffffffffffffffffffffffffffff1673ffffffffffffffffffffffffffffffffffffffff1673ffffffffffffffffffffffffffffffffffffffff16815260200190815260200160002060006101000a81548160ff0219169083151502179055506124f66001600854614a8d90919063ffffffff16565b6008819055507f5c812c1e97b2011e073fbe0cc0225944c561e16d389122c5923f40904e49d98483838381811061252957fe5b9050602002013573ffffffffffffffffffffffffffffffffffffffff16604051808273ffffffffffffffffffffffffffffffffffffffff16815260200191505060405180910390a15b80806001019150506123dc565b505050565b600660009054906101000a900473ffffffffffffffffffffffffffffffffffffffff1681565b6125b2614e4e565b73ffffffffffffffffffffffffffffffffffffffff166125d0612ebb565b73ffffffffffffffffffffffffffffffffffffffff1614612659576040517f08c379a00000000000000000000000000000000000000000000000000000000081526004018080602001828103825260208152602001807f4f776e61626c653a2063616c6c6572206973206e6f7420746865206f776e657281525060200191505060405180910390fd5b600073ffffffffffffffffffffffffffffffffffffffff1660008054906101000a900473ffffffffffffffffffffffffffffffffffffffff1673ffffffffffffffffffffffffffffffffffffffff167f8be0079c531659141344cd1fd0a4f28419497f9722a3daafe3b4186f6b6457e060405160405180910390a360008060006101000a81548173ffffffffffffffffffffffffffffffffffffffff021916908373ffffffffffffffffffffffffffffffffffffffff160217905550565b600560003373ffffffffffffffffffffffffffffffffffffffff1673ffffffffffffffffffffffffffffffffffffffff16815260200190815260200160002060009054906101000a900460ff166127d6576040517f08c379a000000000000000000000000000000000000000000000000000000000815260040180806020018281038252600d8152602001807f6f6e6c79206f70657261746f720000000000000000000000000000000000000081525060200191505060405180910390fd5b600060149054906101000a900460ff1615612859576040517f08c379a000000000000000000000000000000000000000000000000000000000815260040180806020018281038252600e8152602001807f616c72656164792070617573656400000000000000000000000000000000000081525060200191505060405180910390fd5b6001600060146101000a81548160ff0219169083151502179055507f9e87fac88ff661f02d44f95383c817fece4bce600a3dab7a54406878b965e75260405160405180910390a1565b6000600360008573ffffffffffffffffffffffffffffffffffffffff1673ffffffffffffffffffffffffffffffffffffffff1681526020019081526020016000205490506000600182815481106128f557fe5b9060005260206000209060070201905060008160000160009054906101000a900473ffffffffffffffffffffffffffffffffffffffff1673ffffffffffffffffffffffffffffffffffffffff166370a08231306040518263ffffffff1660e01b8152600401808273ffffffffffffffffffffffffffffffffffffffff16815260200191505060206040518083038186803b15801561299257600080fd5b505afa1580156129a6573d6000803e3d6000fd5b505050506040513d60208110156129bc57600080fd5b810190808051906020019092919050505090506000811415612abb574382600101819055508473ffffffffffffffffffffffffffffffffffffffff166323b872dd33612a06612ebb565b876040518463ffffffff1660e01b8152600401808473ffffffffffffffffffffffffffffffffffffffff1681526020018373ffffffffffffffffffffffffffffffffffffffff1681526020018281526020019350505050602060405180830381600087803b158015612a7757600080fd5b505af1158015612a8b573d6000803e3d6000fd5b505050506040513d6020811015612aa157600080fd5b810190808051906020019092919050505050505050612eb6565b6000841115612dea578160040160009054906101000a900473ffffffffffffffffffffffffffffffffffffffff1673ffffffffffffffffffffffffffffffffffffffff168573ffffffffffffffffffffffffffffffffffffffff161415612c58578160040160009054906101000a900473ffffffffffffffffffffffffffffffffffffffff1673ffffffffffffffffffffffffffffffffffffffff166323b872dd3330876040518463ffffffff1660e01b8152600401808473ffffffffffffffffffffffffffffffffffffffff1681526020018373ffffffffffffffffffffffffffffffffffffffff1681526020018281526020019350505050602060405180830381600087803b158015612bcf57600080fd5b505af1158015612be3573d6000803e3d6000fd5b505050506040513d6020811015612bf957600080fd5b810190808051906020019092919050505050612c4b612c3882612c2a64e8d4a5100088614a0790919063ffffffff16565b61497e90919063ffffffff16565b8360020154614a8d90919063ffffffff16565b8260020181905550612de9565b8160050160009054906101000a900473ffffffffffffffffffffffffffffffffffffffff1673ffffffffffffffffffffffffffffffffffffffff168573ffffffffffffffffffffffffffffffffffffffff161415612de8578160050160009054906101000a900473ffffffffffffffffffffffffffffffffffffffff1673ffffffffffffffffffffffffffffffffffffffff166323b872dd3330876040518463ffffffff1660e01b8152600401808473ffffffffffffffffffffffffffffffffffffffff1681526020018373ffffffffffffffffffffffffffffffffffffffff1681526020018281526020019350505050602060405180830381600087803b158015612d6357600080fd5b505af1158015612d77573d6000803e3d6000fd5b505050506040513d6020811015612d8d57600080fd5b810190808051906020019092919050505050612ddf612dcc82612dbe64e8d4a5100088614a0790919063ffffffff16565b61497e90919063ffffffff16565b8360030154614a8d90919063ffffffff16565b82600301819055505b5b5b4382600101819055507f2f08c07c1b721adb84352937c30fdb5f5a90f1faeb9241da443c1fbec3eaed718260000160009054906101000a900473ffffffffffffffffffffffffffffffffffffffff16866000876000604051808673ffffffffffffffffffffffffffffffffffffffff1681526020018573ffffffffffffffffffffffffffffffffffffffff1681526020018473ffffffffffffffffffffffffffffffffffffffff1681526020018381526020018281526020019550505050505060405180910390a15050505b505050565b60008060009054906101000a900473ffffffffffffffffffffffffffffffffffffffff16905090565b6000600360008773ffffffffffffffffffffffffffffffffffffffff1673ffffffffffffffffffffffffffffffffffffffff168152602001908152602001600020549050600060018281548110612f3757fe5b9060005260206000209060070201905060008160000160009054906101000a900473ffffffffffffffffffffffffffffffffffffffff1673ffffffffffffffffffffffffffffffffffffffff166370a08231306040518263ffffffff1660e01b8152600401808273ffffffffffffffffffffffffffffffffffffffff16815260200191505060206040518083038186803b158015612fd457600080fd5b505afa158015612fe8573d6000803e3d6000fd5b505050506040513d6020811015612ffe57600080fd5b810190808051906020019092919050505090506000808873ffffffffffffffffffffffffffffffffffffffff168460040160009054906101000a900473ffffffffffffffffffffffffffffffffffffffff1673ffffffffffffffffffffffffffffffffffffffff1614156130775786915085905061307e565b8591508690505b6000831415613286574384600101819055508360040160009054906101000a900473ffffffffffffffffffffffffffffffffffffffff1673ffffffffffffffffffffffffffffffffffffffff166323b872dd336130d9612ebb565b856040518463ffffffff1660e01b8152600401808473ffffffffffffffffffffffffffffffffffffffff1681526020018373ffffffffffffffffffffffffffffffffffffffff1681526020018281526020019350505050602060405180830381600087803b15801561314a57600080fd5b505af115801561315e573d6000803e3d6000fd5b505050506040513d602081101561317457600080fd5b8101908080519060200190929190505050508360050160009054906101000a900473ffffffffffffffffffffffffffffffffffffffff1673ffffffffffffffffffffffffffffffffffffffff166323b872dd336131cf612ebb565b846040518463ffffffff1660e01b8152600401808473ffffffffffffffffffffffffffffffffffffffff1681526020018373ffffffffffffffffffffffffffffffffffffffff1681526020018281526020019350505050602060405180830381600087803b15801561324057600080fd5b505af1158015613254573d6000803e3d6000fd5b505050506040513d602081101561326a57600080fd5b810190808051906020019092919050505050505050505061361c565b60008211156133c7578360040160009054906101000a900473ffffffffffffffffffffffffffffffffffffffff1673ffffffffffffffffffffffffffffffffffffffff166323b872dd3330856040518463ffffffff1660e01b8152600401808473ffffffffffffffffffffffffffffffffffffffff1681526020018373ffffffffffffffffffffffffffffffffffffffff1681526020018281526020019350505050602060405180830381600087803b15801561334257600080fd5b505af1158015613356573d6000803e3d6000fd5b505050506040513d602081101561336c57600080fd5b8101908080519060200190929190505050506133be6133ab8461339d64e8d4a5100086614a0790919063ffffffff16565b61497e90919063ffffffff16565b8560020154614a8d90919063ffffffff16565b84600201819055505b6000811115613508578360050160009054906101000a900473ffffffffffffffffffffffffffffffffffffffff1673ffffffffffffffffffffffffffffffffffffffff166323b872dd3330846040518463ffffffff1660e01b8152600401808473ffffffffffffffffffffffffffffffffffffffff1681526020018373ffffffffffffffffffffffffffffffffffffffff1681526020018281526020019350505050602060405180830381600087803b15801561348357600080fd5b505af1158015613497573d6000803e3d6000fd5b505050506040513d60208110156134ad57600080fd5b8101908080519060200190929190505050506134ff6134ec846134de64e8d4a5100085614a0790919063ffffffff16565b61497e90919063ffffffff16565b8560030154614a8d90919063ffffffff16565b84600301819055505b4384600101819055507f2f08c07c1b721adb84352937c30fdb5f5a90f1faeb9241da443c1fbec3eaed718460000160009054906101000a900473ffffffffffffffffffffffffffffffffffffffff168560040160009054906101000a900473ffffffffffffffffffffffffffffffffffffffff168660050160009054906101000a900473ffffffffffffffffffffffffffffffffffffffff168585604051808673ffffffffffffffffffffffffffffffffffffffff1681526020018573ffffffffffffffffffffffffffffffffffffffff1681526020018473ffffffffffffffffffffffffffffffffffffffff1681526020018381526020018281526020019550505050505060405180910390a150505050505b5050505050565b6002602052816000526040600020602052806000526040600020600091509150508060000154908060010154908060020154908060030154908060040154905085565b61366e614e4e565b73ffffffffffffffffffffffffffffffffffffffff1661368c612ebb565b73ffffffffffffffffffffffffffffffffffffffff1614613715576040517f08c379a00000000000000000000000000000000000000000000000000000000081526004018080602001828103825260208152602001807f4f776e61626c653a2063616c6c6572206973206e6f7420746865206f776e657281525060200191505060405180910390fd5b6001600560008373ffffffffffffffffffffffffffffffffffffffff1673ffffffffffffffffffffffffffffffffffffffff16815260200190815260200160002060006101000a81548160ff0219169083151502179055507f4c141abccf173677929dea054f218ed87362117834a8869ec9f68d8bdaaea1dc81604051808273ffffffffffffffffffffffffffffffffffffffff16815260200191505060405180910390a150565b60056020528060005260406000206000915054906101000a900460ff1681565b60085481565b600c6020528060005260406000206000915090508060000154908060010154905082565b61380f614e4e565b73ffffffffffffffffffffffffffffffffffffffff1661382d612ebb565b73ffffffffffffffffffffffffffffffffffffffff16146138b6576040517f08c379a00000000000000000000000000000000000000000000000000000000081526004018080602001828103825260208152602001807f4f776e61626c653a2063616c6c6572206973206e6f7420746865206f776e657281525060200191505060405180910390fd5b6000600560008373ffffffffffffffffffffffffffffffffffffffff1673ffffffffffffffffffffffffffffffffffffffff16815260200190815260200160002060006101000a81548160ff0219169083151502179055507f6b4be2dd49eba45ba43390fbe7da13e2b965d255db41d6a0fcf6d2e15ac1fccb81604051808273ffffffffffffffffffffffffffffffffffffffff16815260200191505060405180910390a150565b60076020528060005260406000206000915054906101000a900460ff1681565b600060149054906101000a900460ff1615613a01576040517f08c379a000000000000000000000000000000000000000000000000000000000815260040180806020018281038252600f8152602001807f636f6e7472616374204c6f636b6564000000000000000000000000000000000081525060200191505060405180910390fd5b80613a0a6110bf565b8110613a7e576040517f08c379a000000000000000000000000000000000000000000000000000000000815260040180806020018281038252600e8152602001807f706f6f6c206e6f7420657869737400000000000000000000000000000000000081525060200191505060405180910390fd5b6000339050600060018481548110613a9257fe5b9060005260206000209060070201905060006002600086815260200190815260200160002060008473ffffffffffffffffffffffffffffffffffffffff1673ffffffffffffffffffffffffffffffffffffffff1681526020019081526020016000209050600080600083600001541115613c0257613b4e8360010154613b4064e8d4a51000613b3288600201548860000154614a0790919063ffffffff16565b61497e90919063ffffffff16565b614b1590919063ffffffff16565b9150613b7f8460040160009054906101000a900473ffffffffffffffffffffffffffffffffffffffff168684614c3a565b613bc78360020154613bb964e8d4a51000613bab88600301548860000154614a0790919063ffffffff16565b61497e90919063ffffffff16565b614b1590919063ffffffff16565b9050613bf88460050160009054906101000a900473ffffffffffffffffffffffffffffffffffffffff168683614c3a565b613c0185614e56565b5b613c3464e8d4a51000613c2686600201548660000154614a0790919063ffffffff16565b61497e90919063ffffffff16565b8360010181905550613c6e64e8d4a51000613c6086600301548660000154614a0790919063ffffffff16565b61497e90919063ffffffff16565b8360020181905550868573ffffffffffffffffffffffffffffffffffffffff167f45c072aa05b9853b5a993de7a28bc332ee01404a628cec1a23ce0f659f842ef18484604051808381526020018281526020019250505060405180910390a350505050505050565b600b8181548110613ce357fe5b906000526020600020016000915090505481565b600d602052816000526040600020602052806000526040600020600091509150508060000154908060010154908060020160009054906101000a900460ff16905083565b60046020528060005260406000206000915054906101000a900460ff1681565b60036020528060005260406000206000915090505481565b600a5481565b6000613e1f613dbd600c600086815260200190815260200160002060000154600c60008781526020019081526020016000206001015461497e90919063ffffffff16565b600d60008573ffffffffffffffffffffffffffffffffffffffff1673ffffffffffffffffffffffffffffffffffffffff168152602001908152602001600020600086815260200190815260200160002060000154614a0790919063ffffffff16565b905092915050565b600060149054906101000a900460ff1615613eaa576040517f08c379a000000000000000000000000000000000000000000000000000000000815260040180806020018281038252600f8152602001807f636f6e7472616374204c6f636b6564000000000000000000000000000000000081525060200191505060405180910390fd5b81613eb36110bf565b8110613f27576040517f08c379a000000000000000000000000000000000000000000000000000000000815260040180806020018281038252600e8152602001807f706f6f6c206e6f7420657869737400000000000000000000000000000000000081525060200191505060405180910390fd5b60008211613f9d576040517f08c379a000000000000000000000000000000000000000000000000000000000815260040180806020018281038252600b8152602001807f7a65726f20616d6f756e7400000000000000000000000000000000000000000081525060200191505060405180910390fd5b600060018481548110613fac57fe5b9060005260206000209060070201905060006002600086815260200190815260200160002060003373ffffffffffffffffffffffffffffffffffffffff1673ffffffffffffffffffffffffffffffffffffffff1681526020019081526020016000209050600081600001541115614027576140268561397e565b5b6140783330868560000160009054906101000a900473ffffffffffffffffffffffffffffffffffffffff1673ffffffffffffffffffffffffffffffffffffffff1661508a909392919063ffffffff16565b61408f848260000154614a8d90919063ffffffff16565b81600001819055506140c964e8d4a510006140bb84600201548460000154614a0790919063ffffffff16565b61497e90919063ffffffff16565b816001018190555061410364e8d4a510006140f584600301548460000154614a0790919063ffffffff16565b61497e90919063ffffffff16565b8160020181905550843373ffffffffffffffffffffffffffffffffffffffff167f90890809c654f11d6e72a28fa60149770a0d11ec6c92319d6ceb2bb0a4ea1a15866040518082815260200191505060405180910390a35050505050565b600060149054906101000a900460ff16156141e4576040517f08c379a000000000000000000000000000000000000000000000000000000000815260040180806020018281038252600f8152602001807f636f6e7472616374204c6f636b6564000000000000000000000000000000000081525060200191505060405180910390fd5b600a54811061425b576040517f08c379a00000000000000000000000000000000000000000000000000000000081526004018080602001828103825260188152602001807f696e76616c6964206576616e67656c69737420636c61696d000000000000000081525060200191505060405180910390fd5b60003390506000600d60008373ffffffffffffffffffffffffffffffffffffffff1673ffffffffffffffffffffffffffffffffffffffff16815260200190815260200160002060008481526020019081526020016000206000015411614329576040517f08c379a00000000000000000000000000000000000000000000000000000000081526004018080602001828103825260108152602001807f4e6f2063726564697420706f696e74730000000000000000000000000000000081525060200191505060405180910390fd5b600d60008273ffffffffffffffffffffffffffffffffffffffff1673ffffffffffffffffffffffffffffffffffffffff168152602001908152602001600020600083815260200190815260200160002060020160009054906101000a900460ff16156143fd576040517f08c379a00000000000000000000000000000000000000000000000000000000081526004018080602001828103825260118152602001807f416c72656164792077697468647261776e00000000000000000000000000000081525060200191505060405180910390fd5b60006144a3614441600c600086815260200190815260200160002060000154600c60008781526020019081526020016000206001015461497e90919063ffffffff16565b600d60008573ffffffffffffffffffffffffffffffffffffffff1673ffffffffffffffffffffffffffffffffffffffff168152602001908152602001600020600086815260200190815260200160002060000154614a0790919063ffffffff16565b905060008111156145a05780600d60008473ffffffffffffffffffffffffffffffffffffffff1673ffffffffffffffffffffffffffffffffffffffff1681526020019081526020016000206000858152602001908152602001600020600101819055506001600d60008473ffffffffffffffffffffffffffffffffffffffff1673ffffffffffffffffffffffffffffffffffffffff168152602001908152602001600020600085815260200190815260200160002060020160006101000a81548160ff02191690831515021790555061459f600660009054906101000a900473ffffffffffffffffffffffffffffffffffffffff168383614c3a565b5b7fbe2855de7e6c916ee2ef748b4a5dc71c569daa29ac0803dcbab4976076380dd3828483604051808473ffffffffffffffffffffffffffffffffffffffff168152602001838152602001828152602001935050505060405180910390a1505050565b61460a614e4e565b73ffffffffffffffffffffffffffffffffffffffff16614628612ebb565b73ffffffffffffffffffffffffffffffffffffffff16146146b1576040517f08c379a00000000000000000000000000000000000000000000000000000000081526004018080602001828103825260208152602001807f4f776e61626c653a2063616c6c6572206973206e6f7420746865206f776e657281525060200191505060405180910390fd5b600073ffffffffffffffffffffffffffffffffffffffff168173ffffffffffffffffffffffffffffffffffffffff161415614737576040517f08c379a00000000000000000000000000000000000000000000000000000000081526004018080602001828103825260268152602001806154db6026913960400191505060405180910390fd5b8073ffffffffffffffffffffffffffffffffffffffff1660008054906101000a900473ffffffffffffffffffffffffffffffffffffffff1673ffffffffffffffffffffffffffffffffffffffff167f8be0079c531659141344cd1fd0a4f28419497f9722a3daafe3b4186f6b6457e060405160405180910390a3806000806101000a81548173ffffffffffffffffffffffffffffffffffffffff021916908373ffffffffffffffffffffffffffffffffffffffff16021790555050565b600560003373ffffffffffffffffffffffffffffffffffffffff1673ffffffffffffffffffffffffffffffffffffffff16815260200190815260200160002060009054906101000a900460ff166148b3576040517f08c379a000000000000000000000000000000000000000000000000000000000815260040180806020018281038252600d8152602001807f6f6e6c79206f70657261746f720000000000000000000000000000000000000081525060200191505060405180910390fd5b600060149054906101000a900460ff1615614936576040517f08c379a00000000000000000000000000000000000000000000000000000000081526004018080602001828103825260108152602001807f616c726561647920756e5061757365640000000000000000000000000000000081525060200191505060405180910390fd5b60008060146101000a81548160ff0219169083151502179055507f472cf038e2a5f33dbaa68760dbf94ab4e159535e6580c0ac63f8202c7c6c0bb260405160405180910390a1565b60008082116149f5576040517f08c379a000000000000000000000000000000000000000000000000000000000815260040180806020018281038252601a8152602001807f536166654d6174683a206469766973696f6e206279207a65726f00000000000081525060200191505060405180910390fd5b8183816149fe57fe5b04905092915050565b600080831415614a1a5760009050614a87565b6000828402905082848281614a2b57fe5b0414614a82576040517f08c379a00000000000000000000000000000000000000000000000000000000081526004018080602001828103825260218152602001806155276021913960400191505060405180910390fd5b809150505b92915050565b600080828401905083811015614b0b576040517f08c379a000000000000000000000000000000000000000000000000000000000815260040180806020018281038252601b8152602001807f536166654d6174683a206164646974696f6e206f766572666c6f77000000000081525060200191505060405180910390fd5b8091505092915050565b600082821115614b8d576040517f08c379a000000000000000000000000000000000000000000000000000000000815260040180806020018281038252601e8152602001807f536166654d6174683a207375627472616374696f6e206f766572666c6f77000081525060200191505060405180910390fd5b818303905092915050565b614c358363a9059cbb60e01b8484604051602401808373ffffffffffffffffffffffffffffffffffffffff16815260200182815260200192505050604051602081830303815290604052907bffffffffffffffffffffffffffffffffffffffffffffffffffffffff19166020820180517bffffffffffffffffffffffffffffffffffffffffffffffffffffffff838183161783525050505061514b565b505050565b60008373ffffffffffffffffffffffffffffffffffffffff166370a08231306040518263ffffffff1660e01b8152600401808273ffffffffffffffffffffffffffffffffffffffff16815260200191505060206040518083038186803b158015614ca357600080fd5b505afa158015614cb7573d6000803e3d6000fd5b505050506040513d6020811015614ccd57600080fd5b8101908080519060200190929190505050905080821115614d9a578373ffffffffffffffffffffffffffffffffffffffff1663a9059cbb84836040518363ffffffff1660e01b8152600401808373ffffffffffffffffffffffffffffffffffffffff16815260200182815260200192505050602060405180830381600087803b158015614d5957600080fd5b505af1158015614d6d573d6000803e3d6000fd5b505050506040513d6020811015614d8357600080fd5b810190808051906020019092919050505050614e48565b8373ffffffffffffffffffffffffffffffffffffffff1663a9059cbb84846040518363ffffffff1660e01b8152600401808373ffffffffffffffffffffffffffffffffffffffff16815260200182815260200192505050602060405180830381600087803b158015614e0b57600080fd5b505af1158015614e1f573d6000803e3d6000fd5b505050506040513d6020811015614e3557600080fd5b8101908080519060200190929190505050505b50505050565b600033905090565b600081905060005b600a81101561508557600960009054906101000a900473ffffffffffffffffffffffffffffffffffffffff1673ffffffffffffffffffffffffffffffffffffffff16633b0f0f2f836040518263ffffffff1660e01b8152600401808273ffffffffffffffffffffffffffffffffffffffff16815260200191505060206040518083038186803b158015614ef057600080fd5b505afa158015614f04573d6000803e3d6000fd5b505050506040513d6020811015614f1a57600080fd5b81019080805190602001909291905050509150600073ffffffffffffffffffffffffffffffffffffffff168273ffffffffffffffffffffffffffffffffffffffff161461507857600b8181548110614f6e57fe5b9060005260206000200154600d60008473ffffffffffffffffffffffffffffffffffffffff1673ffffffffffffffffffffffffffffffffffffffff1681526020019081526020016000206000600a5481526020019081526020016000206000015401600d60008473ffffffffffffffffffffffffffffffffffffffff1673ffffffffffffffffffffffffffffffffffffffff1681526020019081526020016000206000600a54815260200190815260200160002060000181905550600b818154811061503657fe5b9060005260206000200154600c6000600a5481526020019081526020016000206000015401600c6000600a548152602001908152602001600020600001819055505b8080600101915050614e5e565b505050565b615145846323b872dd60e01b858585604051602401808473ffffffffffffffffffffffffffffffffffffffff1681526020018373ffffffffffffffffffffffffffffffffffffffff1681526020018281526020019350505050604051602081830303815290604052907bffffffffffffffffffffffffffffffffffffffffffffffffffffffff19166020820180517bffffffffffffffffffffffffffffffffffffffffffffffffffffffff838183161783525050505061514b565b50505050565b60606151ad826040518060400160405280602081526020017f5361666545524332303a206c6f772d6c6576656c2063616c6c206661696c65648152508573ffffffffffffffffffffffffffffffffffffffff1661523a9092919063ffffffff16565b9050600081511115615235578080602001905160208110156151ce57600080fd5b8101908080519060200190929190505050615234576040517f08c379a000000000000000000000000000000000000000000000000000000000815260040180806020018281038252602a815260200180615548602a913960400191505060405180910390fd5b5b505050565b60606152498484600085615252565b90509392505050565b6060824710156152ad576040517f08c379a00000000000000000000000000000000000000000000000000000000081526004018080602001828103825260268152602001806155016026913960400191505060405180910390fd5b6152b6856153fb565b615328576040517f08c379a000000000000000000000000000000000000000000000000000000000815260040180806020018281038252601d8152602001807f416464726573733a2063616c6c20746f206e6f6e2d636f6e747261637400000081525060200191505060405180910390fd5b600060608673ffffffffffffffffffffffffffffffffffffffff1685876040518082805190602001908083835b602083106153785780518252602082019150602081019050602083039250615355565b6001836020036101000a03801982511681845116808217855250505050505090500191505060006040518083038185875af1925050503d80600081146153da576040519150601f19603f3d011682016040523d82523d6000602084013e6153df565b606091505b50915091506153ef82828661540e565b92505050949350505050565b600080823b905060008111915050919050565b6060831561541e578290506154d3565b6000835111156154315782518084602001fd5b816040517f08c379a00000000000000000000000000000000000000000000000000000000081526004018080602001828103825283818151815260200191508051906020019080838360005b8381101561549857808201518184015260208101905061547d565b50505050905090810190601f1680156154c55780820380516001836020036101000a031916815260200191505b509250505060405180910390fd5b939250505056fe4f776e61626c653a206e6577206f776e657220697320746865207a65726f2061646472657373416464726573733a20696e73756666696369656e742062616c616e636520666f722063616c6c536166654d6174683a206d756c7469706c69636174696f6e206f766572666c6f775361666545524332303a204552433230206f7065726174696f6e20646964206e6f742073756363656564a2646970667358221220f68a2192c130e544c538f84160cd89b9470fe05a653774374b3beaed64feadb464736f6c634300060c00334f776e61626c653a206e6577206f776e657220697320746865207a65726f2061646472657373",
  "source": "// SPDX-License-Identifier: MIT\npragma solidity 0.6.12;\n\nimport \"@openzeppelin/contracts/token/ERC20/IERC20.sol\";\nimport \"@openzeppelin/contracts/token/ERC20/SafeERC20.sol\";\nimport \"@openzeppelin/contracts/utils/EnumerableSet.sol\";\nimport \"@openzeppelin/contracts/math/SafeMath.sol\";\nimport \"@openzeppelin/contracts/access/Ownable.sol\";\nimport \"../game/Evangelist.sol\";\n\ncontract MoroccoSwapFarm is Ownable {\n    using SafeMath for uint256;\n    using SafeERC20 for IERC20;\n    // Info of each user.\n    struct UserInfo {\n        uint256 amount;\n        uint256 rewardDebt0;\n        uint256 rewardDebt1;\n        uint256 rewardFarmDebt;\n        uint256 rewardKythDebt;\n    }\n    // Info of each pool.\n    struct PoolInfo {\n        IERC20 lpToken; // Address of LP token contract.\n        uint256 lastRewardBlock;\n        uint256 accPerShare0;\n        uint256 accPerShare1;\n        IERC20 rewardToken0;\n        IERC20 rewardToken1;\n        uint256 accFarmPerShare;\n    }\n\n    bool public paused;\n    // Info of each pool.\n    PoolInfo[] public poolInfo;\n    // Info of each user that stakes LP tokens.\n    mapping(uint256 => mapping(address => UserInfo)) public userInfo;\n    // Lp address with id\n    mapping(address => uint256) public lpIndex;\n    mapping(address => bool) public lpStatus;\n    // operator record\n    mapping(address => bool) public operator;\n\n    IERC20 public kyth; // kyth token\n    // Verified lp pools farm reward\n    mapping(address => bool) public whiteListedPool;\n    uint256 public totalWhiteListedPool;\n\n    // Evangelist Info\n    address public evangeList;\n    uint256 public currentId = 1;\n    uint256[] public creditLevel = [1, 2, 3, 5, 8, 9, 12, 15, 20, 25];\n    struct Credit {\n        uint256 totalCreditsPoints;\n        uint256 amount;\n    }\n    mapping(uint256 => Credit) public creditPointsInfo;\n\n    struct evangelist {\n        uint256 points; // total credit user earned in sepecific duration\n        uint256 earnAmount;\n        bool withdrawn; // default false.\n    }\n    mapping(address => mapping(uint256 => evangelist)) public evangelistInfo;\n\n    event Deposit(address indexed user, uint256 indexed pid, uint256 amount);\n    event Withdraw(address indexed user, uint256 indexed pid, uint256 amount);\n    event EmergencyWithdraw(\n        address indexed user,\n        uint256 indexed pid,\n        uint256 amount\n    );\n    event AddReward(\n        address lp,\n        address rewardToken0,\n        address rewardToken1,\n        uint256 reward0,\n        uint256 reward1\n    );\n    event Claim(\n        address indexed user,\n        uint256 indexed pid,\n        uint256 reward0,\n        uint256 reward1\n    );\n    event Paused();\n    event UnPaused();\n    event AddOperator(address _operator);\n    event RemoveOperator(address _operator);\n    event AddLpInfo(\n        IERC20 _lpToken,\n        IERC20 _rewardToken0,\n        IERC20 _rewardToken1\n    );\n    event AddLpInfo(IERC20 _lpToken);\n    event AddWhiteListPools(IERC20 _lpToken);\n    event AddFarmReward(\n        uint256 totalReward,\n        uint256 totalPools,\n        uint256 reward,\n        uint256 lossReward\n    );\n    event ClaimEvangelistKyth(\n        address rewardToken,\n        uint256 round,\n        uint256 reward\n    );\n    event ClaimFarmKyth(address rewardToken, uint256 pid, uint256 reward);\n    event AddEvangeListReward(uint256 reward, uint256 id);\n\n    modifier isPaused() {\n        require(!paused, \"contract Locked\");\n        _;\n    }\n\n    modifier isPoolExist(uint256 poolId) {\n        require(poolId < poolLength(), \"pool not exist\");\n        _;\n    }\n\n    modifier isOperator() {\n        require(operator[msg.sender], \"only operator\");\n        _;\n    }\n\n    function addWhiteListLPInfo(IERC20[] calldata _lpToken) public isOperator {\n        for (uint256 i = 0; i < _lpToken.length; i++) {\n            if (!whiteListedPool[address(_lpToken[i])]) {\n                whiteListedPool[address(_lpToken[i])] = true;\n                totalWhiteListedPool = totalWhiteListedPool.add(1);\n                emit AddWhiteListPools(_lpToken[i]);\n            }\n        }\n    }\n\n    // Update reward variables\n    function addFarmReward(uint256 totalReward) public isOperator {\n        uint256 totalPools = totalWhiteListedPool;\n        require(totalPools > 0, \"pool list is empty\");\n        kyth.transferFrom(msg.sender, address(this), totalReward);\n        uint256 amount = totalReward.div(totalPools);\n        uint256 pending;\n        for (uint256 i = 0; i < totalPools; i++) {\n            PoolInfo storage pool = poolInfo[i];\n            uint256 lpSupply = pool.lpToken.balanceOf(address(this));\n            if (lpSupply != 0) {\n                pool.accFarmPerShare = pool.accFarmPerShare.add(\n                    amount.mul(1e12).div(lpSupply)\n                );\n            } else {\n                pending = pending.add(amount);\n            }\n        }\n        if (pending > 0) {\n            kyth.transfer(msg.sender, pending);\n        }\n\n        emit AddFarmReward(totalReward, totalPools, amount, pending);\n    }\n\n    constructor(\n        address _factory,\n        address _owner,\n        address _evangeList,\n        address _kyth\n    ) public {\n        require(_factory != address(0x000), \"zero address\");\n        require(address(_owner) != address(0x000), \"zero address\");\n\n        operator[_factory] = true;\n        operator[_owner] = true;\n        evangeList = _evangeList;\n        transferOwnership(_owner);\n        emit AddOperator(_factory);\n        kyth = IERC20(_kyth);\n    }\n\n    function addLPInfo(\n        IERC20 _lpToken,\n        IERC20 _rewardToken0,\n        IERC20 _rewardToken1\n    ) public isOperator {\n        if (!lpStatus[address(_lpToken)]) {\n            uint256 currentIndex = poolLength();\n            poolInfo.push(\n                PoolInfo({\n                    lpToken: _lpToken,\n                    lastRewardBlock: block.number,\n                    accPerShare0: 0,\n                    accPerShare1: 0,\n                    rewardToken0: _rewardToken0,\n                    rewardToken1: _rewardToken1,\n                    accFarmPerShare: 0\n                })\n            );\n            lpIndex[address(_lpToken)] = currentIndex;\n            lpStatus[address(_lpToken)] = true;\n            emit AddLpInfo(_lpToken, _rewardToken0, _rewardToken1);\n        }\n    }\n\n    function addrewardtoken(\n        address _lp,\n        address token,\n        uint256 amount\n    ) public {\n        uint256 _pid = lpIndex[_lp];\n        PoolInfo storage pool = poolInfo[_pid];\n\n        uint256 lpSupply = pool.lpToken.balanceOf(address(this));\n\n        if (lpSupply == 0) {\n            pool.lastRewardBlock = block.number;\n            IERC20(token).transferFrom(msg.sender, owner(), amount);\n            return;\n        }\n\n        if (amount > 0) {\n            if (token == address(pool.rewardToken0)) {\n                pool.rewardToken0.transferFrom(\n                    msg.sender,\n                    address(this),\n                    amount\n                );\n                pool.accPerShare0 = pool.accPerShare0.add(\n                    amount.mul(1e12).div(lpSupply)\n                );\n            } else if (token == address(pool.rewardToken1)) {\n                pool.rewardToken1.transferFrom(\n                    msg.sender,\n                    address(this),\n                    amount\n                );\n                pool.accPerShare1 = pool.accPerShare1.add(\n                    amount.mul(1e12).div(lpSupply)\n                );\n            }\n        }\n\n        pool.lastRewardBlock = block.number;\n        emit AddReward(address(pool.lpToken), token, address(0x000), amount, 0);\n    }\n\n    // Update reward variables of the given pool to be up-to-date.\n    function addReward(\n        address _lp,\n        address token0,\n        address token1,\n        uint256 amount0,\n        uint256 amount1\n    ) public {\n        uint256 _pid = lpIndex[_lp];\n        PoolInfo storage pool = poolInfo[_pid];\n\n        uint256 lpSupply = pool.lpToken.balanceOf(address(this));\n        uint256 reward0;\n        uint256 reward1;\n        if (address(pool.rewardToken0) == token0) {\n            reward0 = amount0;\n            reward1 = amount1;\n        } else {\n            reward0 = amount1;\n            reward1 = amount0;\n        }\n\n        if (lpSupply == 0) {\n            pool.lastRewardBlock = block.number;\n            pool.rewardToken0.transferFrom(msg.sender, owner(), reward0);\n            pool.rewardToken1.transferFrom(msg.sender, owner(), reward1);\n            return;\n        }\n\n        if (reward0 > 0) {\n            pool.rewardToken0.transferFrom(msg.sender, address(this), reward0);\n            pool.accPerShare0 = pool.accPerShare0.add(\n                reward0.mul(1e12).div(lpSupply)\n            );\n        }\n        if (reward1 > 0) {\n            pool.rewardToken1.transferFrom(msg.sender, address(this), reward1);\n            pool.accPerShare1 = pool.accPerShare1.add(\n                reward1.mul(1e12).div(lpSupply)\n            );\n        }\n        pool.lastRewardBlock = block.number;\n        emit AddReward(\n            address(pool.lpToken),\n            address(pool.rewardToken0),\n            address(pool.rewardToken1),\n            reward0,\n            reward1\n        );\n    }\n\n    function deposit(uint256 _pid, uint256 _amount)\n        public\n        isPaused\n        isPoolExist(_pid)\n    {\n        require(_amount > 0, \"zero amount\");\n        PoolInfo storage pool = poolInfo[_pid];\n        UserInfo storage user = userInfo[_pid][msg.sender];\n        if (user.amount > 0) {\n            claimReward(_pid);\n        }\n        pool.lpToken.safeTransferFrom(\n            address(msg.sender),\n            address(this),\n            _amount\n        );\n        user.amount = user.amount.add(_amount);\n        user.rewardDebt0 = user.amount.mul(pool.accPerShare0).div(1e12);\n        user.rewardDebt1 = user.amount.mul(pool.accPerShare1).div(1e12);\n        emit Deposit(msg.sender, _pid, _amount);\n    }\n\n    function claimReward(uint256 _pid) public isPaused isPoolExist(_pid) {\n        address _userAddr = msg.sender;\n        PoolInfo storage pool = poolInfo[_pid];\n        UserInfo storage user = userInfo[_pid][_userAddr];\n        uint256 pendingReward0;\n        uint256 pendingReward1;\n\n        if (user.amount > 0) {\n            pendingReward0 = user.amount.mul(pool.accPerShare0).div(1e12).sub(\n                user.rewardDebt0\n            );\n            safeRewardTransfer(pool.rewardToken0, _userAddr, pendingReward0);\n            pendingReward1 = user.amount.mul(pool.accPerShare1).div(1e12).sub(\n                user.rewardDebt1\n            );\n            safeRewardTransfer(pool.rewardToken1, _userAddr, pendingReward1);\n            //add points to upline\n            addCreditPoints(_userAddr);\n        }\n        user.rewardDebt0 = user.amount.mul(pool.accPerShare0).div(1e12);\n        user.rewardDebt1 = user.amount.mul(pool.accPerShare1).div(1e12);\n        emit Claim(_userAddr, _pid, pendingReward0, pendingReward1);\n    }\n\n    function addCreditPoints(address user) internal {\n        address upline = user;\n        for (uint256 i = 0; i < 10; i++) {\n            upline = Evangelist(evangeList).getReferral(upline);\n            if (upline != address(0x00)) {\n                evangelistInfo[upline][currentId].points =\n                    evangelistInfo[upline][currentId].points +\n                    creditLevel[i];\n                creditPointsInfo[currentId].totalCreditsPoints =\n                    creditPointsInfo[currentId].totalCreditsPoints +\n                    creditLevel[i];\n            }\n        }\n    }\n\n    function claimFarmKyth(uint256 _pid) public isPaused {\n        require(\n            whiteListedPool[address(poolInfo[_pid].lpToken)],\n            \"Pool not whitelist\"\n        );\n        address _userAddr = msg.sender;\n        PoolInfo storage pool = poolInfo[_pid];\n        UserInfo storage user = userInfo[_pid][_userAddr];\n        uint256 pendingReward;\n\n        if (user.amount > 0) {\n            pendingReward = user.amount.mul(pool.accFarmPerShare).div(1e12).sub(\n                user.rewardFarmDebt\n            );\n            safeRewardTransfer(kyth, _userAddr, pendingReward);\n        }\n        user.rewardFarmDebt = user.amount.mul(pool.accFarmPerShare).div(1e12);\n        emit ClaimFarmKyth(_userAddr, _pid, pendingReward);\n    }\n\n    function withdraw(uint256 _pid, uint256 _amount)\n        public\n        isPaused\n        isPoolExist(_pid)\n    {\n        require(_amount > 0, \"zero amount\");\n        PoolInfo storage pool = poolInfo[_pid];\n        UserInfo storage user = userInfo[_pid][msg.sender];\n        require(user.amount >= _amount, \"withdraw: not good\");\n\n        if (user.amount > 0) {\n            claimReward(_pid);\n            if (whiteListedPool[address(poolInfo[_pid].lpToken)]) {\n                claimFarmKyth(_pid);\n            }\n        }\n\n        user.amount = user.amount.sub(_amount);\n        user.rewardDebt0 = user.amount.mul(pool.accPerShare0).div(1e12);\n        pool.lpToken.safeTransfer(address(msg.sender), _amount);\n        emit Withdraw(msg.sender, _pid, _amount);\n    }\n\n    // Withdraw without caring about rewards. EMERGENCY ONLY.\n    function emergencyWithdraw(uint256 _pid) public isPoolExist(_pid) {\n        PoolInfo storage pool = poolInfo[_pid];\n        UserInfo storage user = userInfo[_pid][msg.sender];\n        pool.lpToken.safeTransfer(address(msg.sender), user.amount);\n        emit EmergencyWithdraw(msg.sender, _pid, user.amount);\n        user.amount = 0;\n        user.rewardDebt0 = 0;\n        user.rewardDebt1 = 0;\n    }\n\n    // Safe transfer function\n    function safeRewardTransfer(\n        IERC20 _reward,\n        address _to,\n        uint256 _amount\n    ) internal {\n        uint256 _rewardBal = _reward.balanceOf(address(this));\n        if (_amount > _rewardBal) {\n            _reward.transfer(_to, _rewardBal);\n        } else {\n            _reward.transfer(_to, _amount);\n        }\n    }\n\n    function poolLength() public view returns (uint256) {\n        return poolInfo.length;\n    }\n\n    function pause() external isOperator {\n        require(!paused, \"already paused\");\n        paused = true;\n        emit Paused();\n    }\n\n    function unPause() external isOperator {\n        require(!paused, \"already unPaused\");\n        paused = false;\n        emit UnPaused();\n    }\n\n    function addOperator(address _addr) external onlyOwner {\n        operator[_addr] = true;\n        emit AddOperator(_addr);\n    }\n\n    function removeOperator(address _addr) external onlyOwner {\n        operator[_addr] = false;\n        emit RemoveOperator(_addr);\n    }\n\n    function addEvangeListReward(uint256 totalReward)\n        public\n        isPaused\n        isOperator\n    {\n        kyth.transferFrom(msg.sender, address(this), totalReward);\n\n        if (currentId == 1 && (creditPointsInfo[currentId].amount == 0)) {\n            creditPointsInfo[currentId].amount = totalReward;\n        } else {\n            currentId = currentId + 1;\n            creditPointsInfo[currentId].amount = totalReward;\n        }\n        emit AddEvangeListReward(totalReward, currentId);\n    }\n\n    function claimEvangelistKyth(uint256 round) public isPaused {\n        require(round < currentId, \"invalid evangelist claim\");\n        address _userAddr = msg.sender;\n        require(\n            evangelistInfo[_userAddr][round].points > 0,\n            \"No credit points\"\n        );\n        require(\n            !evangelistInfo[_userAddr][round].withdrawn,\n            \"Already withdrawn\"\n        );\n        uint256 reward = evangelistInfo[_userAddr][round].points.mul(\n            (\n                creditPointsInfo[round].amount.div(\n                    creditPointsInfo[round].totalCreditsPoints\n                )\n            )\n        );\n\n        if (reward > 0) {\n            evangelistInfo[_userAddr][round].earnAmount = reward;\n            evangelistInfo[_userAddr][round].withdrawn = true;\n            safeRewardTransfer(kyth, _userAddr, reward);\n        }\n\n        emit ClaimEvangelistKyth(_userAddr, round, reward);\n    }\n\n    function setEvangelist(address _evange) external isOperator {\n        require(_evange != address(0x00), \"Zero address\");\n        evangeList = _evange;\n    }\n\n    function getEvangeListReward(uint256 round, address _userAddr)\n        external\n        view\n        returns (uint256 reward)\n    {\n        reward = evangelistInfo[_userAddr][round].points.mul(\n            (\n                creditPointsInfo[round].amount.div(\n                    creditPointsInfo[round].totalCreditsPoints\n                )\n            )\n        );\n        return reward;\n    }\n}\n",
  "sourcePath": "/home/sultana/Desktop/learn/upgradable/spiderSwap/contracts/Farm/MoroccoSwapFarm.sol",
  "compiler": {
    "name": "solc",
    "version": "0.6.12+commit.27d51765.Emscripten.clang"
  },
  "schemaVersion": "3.0.23",
  "updatedAt": "2022-02-11T17:37:25.341Z",
  "devdoc": {
    "kind": "dev",
    "methods": {
      "owner()": {
        "details": "Returns the address of the current owner."
      },
      "renounceOwnership()": {
        "details": "Leaves the contract without owner. It will not be possible to call `onlyOwner` functions anymore. Can only be called by the current owner. NOTE: Renouncing ownership will leave the contract without an owner, thereby removing any functionality that is only available to the owner."
      },
      "transferOwnership(address)": {
        "details": "Transfers ownership of the contract to a new account (`newOwner`). Can only be called by the current owner."
      }
    },
    "version": 1
  },
  "userdoc": {
    "kind": "user",
    "methods": {},
    "version": 1
  }
}