{
  "contractName": "Roulette",
  "abi": [
    {
      "inputs": [
        {
          "internalType": "contract IERC20",
          "name": "_token",
          "type": "address"
        }
      ],
      "stateMutability": "nonpayable",
      "type": "constructor"
    },
    {
      "anonymous": false,
      "inputs": [
        {
          "indexed": false,
          "internalType": "uint256",
          "name": "gameId",
          "type": "uint256"
        },
        {
          "indexed": false,
          "internalType": "uint256",
          "name": "totalReward",
          "type": "uint256"
        }
      ],
      "name": "AddRound",
      "type": "event"
    },
    {
      "anonymous": false,
      "inputs": [
        {
          "indexed": false,
          "internalType": "address",
          "name": "user",
          "type": "address"
        },
        {
          "indexed": false,
          "internalType": "uint256",
          "name": "amount",
          "type": "uint256"
        }
      ],
      "name": "Claim",
      "type": "event"
    },
    {
      "anonymous": false,
      "inputs": [
        {
          "indexed": true,
          "internalType": "address",
          "name": "previousOwner",
          "type": "address"
        },
        {
          "indexed": true,
          "internalType": "address",
          "name": "newOwner",
          "type": "address"
        }
      ],
      "name": "OwnershipTransferred",
      "type": "event"
    },
    {
      "anonymous": false,
      "inputs": [],
      "name": "Paused",
      "type": "event"
    },
    {
      "anonymous": false,
      "inputs": [
        {
          "indexed": false,
          "internalType": "address",
          "name": "addr",
          "type": "address"
        }
      ],
      "name": "SetOperator",
      "type": "event"
    },
    {
      "anonymous": false,
      "inputs": [
        {
          "indexed": false,
          "internalType": "address",
          "name": "user",
          "type": "address"
        },
        {
          "indexed": false,
          "internalType": "uint256",
          "name": "gameId",
          "type": "uint256"
        },
        {
          "indexed": false,
          "internalType": "uint256",
          "name": "position",
          "type": "uint256"
        }
      ],
      "name": "Spin",
      "type": "event"
    },
    {
      "anonymous": false,
      "inputs": [],
      "name": "UnPaused",
      "type": "event"
    },
    {
      "inputs": [],
      "name": "currentRound",
      "outputs": [
        {
          "internalType": "uint256",
          "name": "",
          "type": "uint256"
        }
      ],
      "stateMutability": "view",
      "type": "function"
    },
    {
      "inputs": [],
      "name": "maxGameDuration",
      "outputs": [
        {
          "internalType": "uint256",
          "name": "",
          "type": "uint256"
        }
      ],
      "stateMutability": "view",
      "type": "function"
    },
    {
      "inputs": [
        {
          "internalType": "address",
          "name": "",
          "type": "address"
        }
      ],
      "name": "operator",
      "outputs": [
        {
          "internalType": "bool",
          "name": "",
          "type": "bool"
        }
      ],
      "stateMutability": "view",
      "type": "function"
    },
    {
      "inputs": [],
      "name": "owner",
      "outputs": [
        {
          "internalType": "address",
          "name": "",
          "type": "address"
        }
      ],
      "stateMutability": "view",
      "type": "function"
    },
    {
      "inputs": [],
      "name": "renounceOwnership",
      "outputs": [],
      "stateMutability": "nonpayable",
      "type": "function"
    },
    {
      "inputs": [
        {
          "internalType": "uint256",
          "name": "",
          "type": "uint256"
        }
      ],
      "name": "roundInfo",
      "outputs": [
        {
          "internalType": "uint256",
          "name": "gameId",
          "type": "uint256"
        },
        {
          "internalType": "uint256",
          "name": "startTimestamp",
          "type": "uint256"
        },
        {
          "internalType": "uint256",
          "name": "closeTimestamp",
          "type": "uint256"
        },
        {
          "internalType": "uint256",
          "name": "rewardAmount",
          "type": "uint256"
        },
        {
          "internalType": "uint256",
          "name": "totalWinner",
          "type": "uint256"
        }
      ],
      "stateMutability": "view",
      "type": "function"
    },
    {
      "inputs": [],
      "name": "token",
      "outputs": [
        {
          "internalType": "contract IERC20",
          "name": "",
          "type": "address"
        }
      ],
      "stateMutability": "view",
      "type": "function"
    },
    {
      "inputs": [
        {
          "internalType": "address",
          "name": "newOwner",
          "type": "address"
        }
      ],
      "name": "transferOwnership",
      "outputs": [],
      "stateMutability": "nonpayable",
      "type": "function"
    },
    {
      "inputs": [
        {
          "internalType": "address",
          "name": "",
          "type": "address"
        }
      ],
      "name": "userInfo",
      "outputs": [
        {
          "internalType": "uint256",
          "name": "lastRound",
          "type": "uint256"
        },
        {
          "internalType": "uint256",
          "name": "lastIndex",
          "type": "uint256"
        }
      ],
      "stateMutability": "view",
      "type": "function"
    },
    {
      "inputs": [
        {
          "internalType": "uint256",
          "name": "amount",
          "type": "uint256"
        }
      ],
      "name": "addRound",
      "outputs": [],
      "stateMutability": "nonpayable",
      "type": "function"
    },
    {
      "inputs": [],
      "name": "spin",
      "outputs": [],
      "stateMutability": "nonpayable",
      "type": "function"
    },
    {
      "inputs": [],
      "name": "claim",
      "outputs": [],
      "stateMutability": "nonpayable",
      "type": "function"
    },
    {
      "inputs": [
        {
          "internalType": "address",
          "name": "user",
          "type": "address"
        }
      ],
      "name": "getUserInfo",
      "outputs": [
        {
          "internalType": "uint256[]",
          "name": "totalParticipatedRound",
          "type": "uint256[]"
        },
        {
          "internalType": "uint256",
          "name": "lastRound",
          "type": "uint256"
        },
        {
          "internalType": "uint256",
          "name": "lastIndex",
          "type": "uint256"
        }
      ],
      "stateMutability": "view",
      "type": "function"
    },
    {
      "inputs": [
        {
          "internalType": "address",
          "name": "user",
          "type": "address"
        },
        {
          "internalType": "uint256",
          "name": "gameID",
          "type": "uint256"
        }
      ],
      "name": "getUserTotalSpin",
      "outputs": [
        {
          "internalType": "uint256",
          "name": "red",
          "type": "uint256"
        },
        {
          "internalType": "uint256",
          "name": "blue",
          "type": "uint256"
        }
      ],
      "stateMutability": "view",
      "type": "function"
    },
    {
      "inputs": [],
      "name": "pause",
      "outputs": [],
      "stateMutability": "nonpayable",
      "type": "function"
    },
    {
      "inputs": [],
      "name": "unPause",
      "outputs": [],
      "stateMutability": "nonpayable",
      "type": "function"
    },
    {
      "inputs": [
        {
          "internalType": "address",
          "name": "_addr",
          "type": "address"
        }
      ],
      "name": "setOperator",
      "outputs": [],
      "stateMutability": "nonpayable",
      "type": "function"
    },
    {
      "inputs": [
        {
          "internalType": "address",
          "name": "_token",
          "type": "address"
        }
      ],
      "name": "setRewardToken",
      "outputs": [],
      "stateMutability": "nonpayable",
      "type": "function"
    },
    {
      "inputs": [
        {
          "internalType": "uint256",
          "name": "_duration",
          "type": "uint256"
        }
      ],
      "name": "setMaxGameDuration",
      "outputs": [],
      "stateMutability": "nonpayable",
      "type": "function"
    },
    {
      "inputs": [
        {
          "internalType": "address[]",
          "name": "_token",
          "type": "address[]"
        }
      ],
      "name": "inCaseTokensGetStuck",
      "outputs": [],
      "stateMutability": "nonpayable",
      "type": "function"
    }
  ],
  "bytecode": "0x6080604052610e1060025534801561001657600080fd5b5060405162002b7238038062002b728339818101604052602081101561003b57600080fd5b8101908080519060200190929190505050600061005c61014160201b60201c565b9050806000806101000a81548173ffffffffffffffffffffffffffffffffffffffff021916908373ffffffffffffffffffffffffffffffffffffffff1602179055508073ffffffffffffffffffffffffffffffffffffffff16600073ffffffffffffffffffffffffffffffffffffffff167f8be0079c531659141344cd1fd0a4f28419497f9722a3daafe3b4186f6b6457e060405160405180910390a35080600360006101000a81548173ffffffffffffffffffffffffffffffffffffffff021916908373ffffffffffffffffffffffffffffffffffffffff16021790555050610149565b600033905090565b612a1980620001596000396000f3fe608060405234801561001057600080fd5b506004361061012c5760003560e01c80638da5cb5b116100ad578063c9e9fe9c11610071578063c9e9fe9c14610554578063f0acd7d514610582578063f2fde38b1461058c578063f7b188a5146105d0578063fc0c546a146105da5761012c565b80638da5cb5b146104365780639a3073911461046a578063b3ab15fb146104c4578063b64ea8c614610508578063c2feb473146105265761012c565b80636386c1c7116100f45780636386c1c714610319578063715018a6146103c05780638456cb59146103ca5780638a19c8bc146103d45780638aee8127146103f25761012c565b80631959a00214610131578063427f0b001461019057806342c73571146101ee5780634e71d92d146102575780635f87532e14610261575b600080fd5b6101736004803603602081101561014757600080fd5b81019080803573ffffffffffffffffffffffffffffffffffffffff16906020019092919050505061060e565b604051808381526020018281526020019250505060405180910390f35b6101bc600480360360208110156101a657600080fd5b8101908080359060200190929190505050610632565b604051808681526020018581526020018481526020018381526020018281526020019550505050505060405180910390f35b61023a6004803603604081101561020457600080fd5b81019080803573ffffffffffffffffffffffffffffffffffffffff16906020019092919080359060200190929190505050610668565b604051808381526020018281526020019250505060405180910390f35b61025f610724565b005b6103176004803603602081101561027757600080fd5b810190808035906020019064010000000081111561029457600080fd5b8201836020820111156102a657600080fd5b803590602001918460208302840111640100000000831117156102c857600080fd5b919080806020026020016040519081016040528093929190818152602001838360200280828437600081840152601f19601f820116905080830192505050505050509192919290505050610c1f565b005b61035b6004803603602081101561032f57600080fd5b81019080803573ffffffffffffffffffffffffffffffffffffffff169060200190929190505050610de6565b6040518080602001848152602001838152602001828103825285818151815260200191508051906020019060200280838360005b838110156103aa57808201518184015260208101905061038f565b5050505090500194505050505060405180910390f35b6103c8610f0f565b005b6103d261107c565b005b6103dc6111f7565b6040518082815260200191505060405180910390f35b6104346004803603602081101561040857600080fd5b81019080803573ffffffffffffffffffffffffffffffffffffffff1690602001909291905050506111fd565b005b61043e611393565b604051808273ffffffffffffffffffffffffffffffffffffffff16815260200191505060405180910390f35b6104ac6004803603602081101561048057600080fd5b81019080803573ffffffffffffffffffffffffffffffffffffffff1690602001909291905050506113bc565b60405180821515815260200191505060405180910390f35b610506600480360360208110156104da57600080fd5b81019080803573ffffffffffffffffffffffffffffffffffffffff1690602001909291905050506113dc565b005b6105106115d6565b6040518082815260200191505060405180910390f35b6105526004803603602081101561053c57600080fd5b81019080803590602001909291905050506115dc565b005b6105806004803603602081101561056a57600080fd5b8101908080359060200190929190505050611695565b005b61058a61185f565b005b6105ce600480360360208110156105a257600080fd5b81019080803573ffffffffffffffffffffffffffffffffffffffff169060200190929190505050611ce7565b005b6105d8611ed9565b005b6105e2612054565b604051808273ffffffffffffffffffffffffffffffffffffffff16815260200191505060405180910390f35b60056020528060005260406000206000915090508060020154908060030154905082565b60046020528060005260406000206000915090508060000154908060010154908060020154908060030154908060040154905085565b600080600560008573ffffffffffffffffffffffffffffffffffffffff1673ffffffffffffffffffffffffffffffffffffffff1681526020019081526020016000206000016000848152602001908152602001600020600001549150600560008573ffffffffffffffffffffffffffffffffffffffff1673ffffffffffffffffffffffffffffffffffffffff16815260200190815260200160002060000160008481526020019081526020016000206001015490509250929050565b600360149054906101000a900460ff16156107a7576040517f08c379a000000000000000000000000000000000000000000000000000000000815260040180806020018281038252600f8152602001807f636f6e7472616374204c6f636b6564000000000000000000000000000000000081525060200191505060405180910390fd5b6000339050426004600060015481526020019081526020016000206002015410610839576040517f08c379a00000000000000000000000000000000000000000000000000000000081526004018080602001828103825260068152602001807f436c6f736564000000000000000000000000000000000000000000000000000081525060200191505060405180910390fd5b6000600560008373ffffffffffffffffffffffffffffffffffffffff1673ffffffffffffffffffffffffffffffffffffffff16815260200190815260200160002060010180549050116108f4576040517f08c379a00000000000000000000000000000000000000000000000000000000081526004018080602001828103825260118152602001807f4f6e6c79207061727469636970616e747300000000000000000000000000000081525060200191505060405180910390fd5b600560008273ffffffffffffffffffffffffffffffffffffffff1673ffffffffffffffffffffffffffffffffffffffff16815260200190815260200160002060030154600560008373ffffffffffffffffffffffffffffffffffffffff1673ffffffffffffffffffffffffffffffffffffffff16815260200190815260200160002060010180549050116109f0576040517f08c379a000000000000000000000000000000000000000000000000000000000815260040180806020018281038252600a8152602001807f4e6f2070656e64696e670000000000000000000000000000000000000000000081525060200191505060405180910390fd5b6000806000600560008573ffffffffffffffffffffffffffffffffffffffff1673ffffffffffffffffffffffffffffffffffffffff1681526020019081526020016000206003015490505b600560008573ffffffffffffffffffffffffffffffffffffffff1673ffffffffffffffffffffffffffffffffffffffff16815260200190815260200160002060010180549050811015610bba57600560008573ffffffffffffffffffffffffffffffffffffffff1673ffffffffffffffffffffffffffffffffffffffff1681526020019081526020016000206001018181548110610ad557fe5b906000526020600020015491506000600560008673ffffffffffffffffffffffffffffffffffffffff1673ffffffffffffffffffffffffffffffffffffffff16815260200190815260200160002060000160008481526020019081526020016000206001015490506000811115610bac57610ba9610b9a610b8b6004600087815260200190815260200160002060040154600460008881526020019081526020016000206003015461207a90919063ffffffff16565b8361210390919063ffffffff16565b8561218990919063ffffffff16565b93505b508080600101915050610a3b565b50610bc58383612211565b7f47cee97cb7acd717b3c0aa1435d004cd5b3c8c57d70dbceb4e4458bbd60e39d48383604051808373ffffffffffffffffffffffffffffffffffffffff1681526020018281526020019250505060405180910390a1505050565b610c2761248a565b73ffffffffffffffffffffffffffffffffffffffff16610c45611393565b73ffffffffffffffffffffffffffffffffffffffff1614610cce576040517f08c379a00000000000000000000000000000000000000000000000000000000081526004018080602001828103825260208152602001807f4f776e61626c653a2063616c6c6572206973206e6f7420746865206f776e657281525060200191505060405180910390fd5b600080600090505b8251811015610de157828181518110610ceb57fe5b602002602001015173ffffffffffffffffffffffffffffffffffffffff166370a08231306040518263ffffffff1660e01b8152600401808273ffffffffffffffffffffffffffffffffffffffff16815260200191505060206040518083038186803b158015610d5957600080fd5b505afa158015610d6d573d6000803e3d6000fd5b505050506040513d6020811015610d8357600080fd5b81019080805190602001909291905050509150610dd43383858481518110610da757fe5b602002602001015173ffffffffffffffffffffffffffffffffffffffff166124929092919063ffffffff16565b8080600101915050610cd6565b505050565b6060600080600560008573ffffffffffffffffffffffffffffffffffffffff1673ffffffffffffffffffffffffffffffffffffffff168152602001908152602001600020600101805480602002602001604051908101604052809291908181526020018280548015610e7757602002820191906000526020600020905b815481526020019060010190808311610e63575b50505050509250600560008573ffffffffffffffffffffffffffffffffffffffff1673ffffffffffffffffffffffffffffffffffffffff168152602001908152602001600020600201549150600560008573ffffffffffffffffffffffffffffffffffffffff1673ffffffffffffffffffffffffffffffffffffffff1681526020019081526020016000206003015490509193909250565b610f1761248a565b73ffffffffffffffffffffffffffffffffffffffff16610f35611393565b73ffffffffffffffffffffffffffffffffffffffff1614610fbe576040517f08c379a00000000000000000000000000000000000000000000000000000000081526004018080602001828103825260208152602001807f4f776e61626c653a2063616c6c6572206973206e6f7420746865206f776e657281525060200191505060405180910390fd5b600073ffffffffffffffffffffffffffffffffffffffff1660008054906101000a900473ffffffffffffffffffffffffffffffffffffffff1673ffffffffffffffffffffffffffffffffffffffff167f8be0079c531659141344cd1fd0a4f28419497f9722a3daafe3b4186f6b6457e060405160405180910390a360008060006101000a81548173ffffffffffffffffffffffffffffffffffffffff021916908373ffffffffffffffffffffffffffffffffffffffff160217905550565b61108461248a565b73ffffffffffffffffffffffffffffffffffffffff166110a2611393565b73ffffffffffffffffffffffffffffffffffffffff161461112b576040517f08c379a00000000000000000000000000000000000000000000000000000000081526004018080602001828103825260208152602001807f4f776e61626c653a2063616c6c6572206973206e6f7420746865206f776e657281525060200191505060405180910390fd5b600360149054906101000a900460ff16156111ae576040517f08c379a000000000000000000000000000000000000000000000000000000000815260040180806020018281038252600e8152602001807f616c72656164792070617573656400000000000000000000000000000000000081525060200191505060405180910390fd5b6001600360146101000a81548160ff0219169083151502179055507f9e87fac88ff661f02d44f95383c817fece4bce600a3dab7a54406878b965e75260405160405180910390a1565b60015481565b61120561248a565b73ffffffffffffffffffffffffffffffffffffffff16611223611393565b73ffffffffffffffffffffffffffffffffffffffff16146112ac576040517f08c379a00000000000000000000000000000000000000000000000000000000081526004018080602001828103825260208152602001807f4f776e61626c653a2063616c6c6572206973206e6f7420746865206f776e657281525060200191505060405180910390fd5b600073ffffffffffffffffffffffffffffffffffffffff168173ffffffffffffffffffffffffffffffffffffffff16141561134f576040517f08c379a000000000000000000000000000000000000000000000000000000000815260040180806020018281038252600c8152602001807f7a65726f2061646472657373000000000000000000000000000000000000000081525060200191505060405180910390fd5b80600360006101000a81548173ffffffffffffffffffffffffffffffffffffffff021916908373ffffffffffffffffffffffffffffffffffffffff16021790555050565b60008060009054906101000a900473ffffffffffffffffffffffffffffffffffffffff16905090565b60066020528060005260406000206000915054906101000a900460ff1681565b6113e461248a565b73ffffffffffffffffffffffffffffffffffffffff16611402611393565b73ffffffffffffffffffffffffffffffffffffffff161461148b576040517f08c379a00000000000000000000000000000000000000000000000000000000081526004018080602001828103825260208152602001807f4f776e61626c653a2063616c6c6572206973206e6f7420746865206f776e657281525060200191505060405180910390fd5b600073ffffffffffffffffffffffffffffffffffffffff168173ffffffffffffffffffffffffffffffffffffffff16141561152e576040517f08c379a000000000000000000000000000000000000000000000000000000000815260040180806020018281038252600c8152602001807f7a65726f2061646472657373000000000000000000000000000000000000000081525060200191505060405180910390fd5b6001600660008373ffffffffffffffffffffffffffffffffffffffff1673ffffffffffffffffffffffffffffffffffffffff16815260200190815260200160002060006101000a81548160ff0219169083151502179055507fdbebfba65bd6398fb722063efc10c99f624f9cd8ba657201056af918a676d5ee81604051808273ffffffffffffffffffffffffffffffffffffffff16815260200191505060405180910390a150565b60025481565b6115e461248a565b73ffffffffffffffffffffffffffffffffffffffff16611602611393565b73ffffffffffffffffffffffffffffffffffffffff161461168b576040517f08c379a00000000000000000000000000000000000000000000000000000000081526004018080602001828103825260208152602001807f4f776e61626c653a2063616c6c6572206973206e6f7420746865206f776e657281525060200191505060405180910390fd5b8060028190555050565b60011515600660003373ffffffffffffffffffffffffffffffffffffffff1673ffffffffffffffffffffffffffffffffffffffff16815260200190815260200160002060009054906101000a900460ff161515148061172657503373ffffffffffffffffffffffffffffffffffffffff1661170e611393565b73ffffffffffffffffffffffffffffffffffffffff16145b611798576040517f08c379a00000000000000000000000000000000000000000000000000000000081526004018080602001828103825260128152602001807f4e6f74206f70657261746f722f6f776e6572000000000000000000000000000081525060200191505060405180910390fd5b60018054016001819055506040518060a00160405280600154815260200142815260200160025442018152602001828152602001600081525060046000600154815260200190815260200160002060008201518160000155602082015181600101556040820151816002015560608201518160030155608082015181600401559050507f03dbe8f93f0794ed88fda9d39784efd669d83af7832e58c700e4ffd2be43ce6760015482604051808381526020018281526020019250505060405180910390a150565b600360149054906101000a900460ff16156118e2576040517f08c379a000000000000000000000000000000000000000000000000000000000815260040180806020018281038252600f8152602001807f636f6e7472616374204c6f636b6564000000000000000000000000000000000081525060200191505060405180910390fd5b6000339050426004600060015481526020019081526020016000206002015411611974576040517f08c379a00000000000000000000000000000000000000000000000000000000081526004018080602001828103825260068152602001807f436c6f736564000000000000000000000000000000000000000000000000000081525060200191505060405180910390fd5b6000434260015460405160200180848152602001838152602001828152602001935050505060405160208183030381529060405280519060200120905060006119ca60028360001c61253490919063ffffffff16565b90506000811415611a92576001600560008573ffffffffffffffffffffffffffffffffffffffff1673ffffffffffffffffffffffffffffffffffffffff168152602001908152602001600020600001600060015481526020019081526020016000206000015401600560008573ffffffffffffffffffffffffffffffffffffffff1673ffffffffffffffffffffffffffffffffffffffff1681526020019081526020016000206000016000600154815260200190815260200160002060000181905550611b83565b6001600560008573ffffffffffffffffffffffffffffffffffffffff1673ffffffffffffffffffffffffffffffffffffffff168152602001908152602001600020600001600060015481526020019081526020016000206001015401600560008573ffffffffffffffffffffffffffffffffffffffff1673ffffffffffffffffffffffffffffffffffffffff168152602001908152602001600020600001600060015481526020019081526020016000206001018190555060016004600060015481526020019081526020016000206004015401600460006001548152602001908152602001600020600401819055505b600154600560008573ffffffffffffffffffffffffffffffffffffffff1673ffffffffffffffffffffffffffffffffffffffff1681526020019081526020016000206002015414611c8357600154600560008573ffffffffffffffffffffffffffffffffffffffff1673ffffffffffffffffffffffffffffffffffffffff16815260200190815260200160002060020181905550600560008473ffffffffffffffffffffffffffffffffffffffff1673ffffffffffffffffffffffffffffffffffffffff16815260200190815260200160002060010160015490806001815401808255809150506001900390600052602060002001600090919091909150555b7f6e6176978281d38bd6beedbbb1f1de32c344bde654337da94628f15dd38fa6108360015483604051808473ffffffffffffffffffffffffffffffffffffffff168152602001838152602001828152602001935050505060405180910390a1505050565b611cef61248a565b73ffffffffffffffffffffffffffffffffffffffff16611d0d611393565b73ffffffffffffffffffffffffffffffffffffffff1614611d96576040517f08c379a00000000000000000000000000000000000000000000000000000000081526004018080602001828103825260208152602001807f4f776e61626c653a2063616c6c6572206973206e6f7420746865206f776e657281525060200191505060405180910390fd5b600073ffffffffffffffffffffffffffffffffffffffff168173ffffffffffffffffffffffffffffffffffffffff161415611e1c576040517f08c379a000000000000000000000000000000000000000000000000000000000815260040180806020018281038252602681526020018061294d6026913960400191505060405180910390fd5b8073ffffffffffffffffffffffffffffffffffffffff1660008054906101000a900473ffffffffffffffffffffffffffffffffffffffff1673ffffffffffffffffffffffffffffffffffffffff167f8be0079c531659141344cd1fd0a4f28419497f9722a3daafe3b4186f6b6457e060405160405180910390a3806000806101000a81548173ffffffffffffffffffffffffffffffffffffffff021916908373ffffffffffffffffffffffffffffffffffffffff16021790555050565b611ee161248a565b73ffffffffffffffffffffffffffffffffffffffff16611eff611393565b73ffffffffffffffffffffffffffffffffffffffff1614611f88576040517f08c379a00000000000000000000000000000000000000000000000000000000081526004018080602001828103825260208152602001807f4f776e61626c653a2063616c6c6572206973206e6f7420746865206f776e657281525060200191505060405180910390fd5b600360149054906101000a900460ff161561200b576040517f08c379a00000000000000000000000000000000000000000000000000000000081526004018080602001828103825260108152602001807f616c726561647920756e5061757365640000000000000000000000000000000081525060200191505060405180910390fd5b6000600360146101000a81548160ff0219169083151502179055507f472cf038e2a5f33dbaa68760dbf94ab4e159535e6580c0ac63f8202c7c6c0bb260405160405180910390a1565b600360009054906101000a900473ffffffffffffffffffffffffffffffffffffffff1681565b60008082116120f1576040517f08c379a000000000000000000000000000000000000000000000000000000000815260040180806020018281038252601a8152602001807f536166654d6174683a206469766973696f6e206279207a65726f00000000000081525060200191505060405180910390fd5b8183816120fa57fe5b04905092915050565b6000808314156121165760009050612183565b600082840290508284828161212757fe5b041461217e576040517f08c379a00000000000000000000000000000000000000000000000000000000081526004018080602001828103825260218152602001806129996021913960400191505060405180910390fd5b809150505b92915050565b600080828401905083811015612207576040517f08c379a000000000000000000000000000000000000000000000000000000000815260040180806020018281038252601b8152602001807f536166654d6174683a206164646974696f6e206f766572666c6f77000000000081525060200191505060405180910390fd5b8091505092915050565b6000600360009054906101000a900473ffffffffffffffffffffffffffffffffffffffff1673ffffffffffffffffffffffffffffffffffffffff166370a08231306040518263ffffffff1660e01b8152600401808273ffffffffffffffffffffffffffffffffffffffff16815260200191505060206040518083038186803b15801561229c57600080fd5b505afa1580156122b0573d6000803e3d6000fd5b505050506040513d60208110156122c657600080fd5b81019080805190602001909291905050509050808211156123b557600360009054906101000a900473ffffffffffffffffffffffffffffffffffffffff1673ffffffffffffffffffffffffffffffffffffffff1663a9059cbb84836040518363ffffffff1660e01b8152600401808373ffffffffffffffffffffffffffffffffffffffff16815260200182815260200192505050602060405180830381600087803b15801561237457600080fd5b505af1158015612388573d6000803e3d6000fd5b505050506040513d602081101561239e57600080fd5b810190808051906020019092919050505050612485565b600360009054906101000a900473ffffffffffffffffffffffffffffffffffffffff1673ffffffffffffffffffffffffffffffffffffffff1663a9059cbb84846040518363ffffffff1660e01b8152600401808373ffffffffffffffffffffffffffffffffffffffff16815260200182815260200192505050602060405180830381600087803b15801561244857600080fd5b505af115801561245c573d6000803e3d6000fd5b505050506040513d602081101561247257600080fd5b8101908080519060200190929190505050505b505050565b600033905090565b61252f8363a9059cbb60e01b8484604051602401808373ffffffffffffffffffffffffffffffffffffffff16815260200182815260200192505050604051602081830303815290604052907bffffffffffffffffffffffffffffffffffffffffffffffffffffffff19166020820180517bffffffffffffffffffffffffffffffffffffffffffffffffffffffff83818316178352505050506125bd565b505050565b60008082116125ab576040517f08c379a00000000000000000000000000000000000000000000000000000000081526004018080602001828103825260188152602001807f536166654d6174683a206d6f64756c6f206279207a65726f000000000000000081525060200191505060405180910390fd5b8183816125b457fe5b06905092915050565b606061261f826040518060400160405280602081526020017f5361666545524332303a206c6f772d6c6576656c2063616c6c206661696c65648152508573ffffffffffffffffffffffffffffffffffffffff166126ac9092919063ffffffff16565b90506000815111156126a75780806020019051602081101561264057600080fd5b81019080805190602001909291905050506126a6576040517f08c379a000000000000000000000000000000000000000000000000000000000815260040180806020018281038252602a8152602001806129ba602a913960400191505060405180910390fd5b5b505050565b60606126bb84846000856126c4565b90509392505050565b60608247101561271f576040517f08c379a00000000000000000000000000000000000000000000000000000000081526004018080602001828103825260268152602001806129736026913960400191505060405180910390fd5b6127288561286d565b61279a576040517f08c379a000000000000000000000000000000000000000000000000000000000815260040180806020018281038252601d8152602001807f416464726573733a2063616c6c20746f206e6f6e2d636f6e747261637400000081525060200191505060405180910390fd5b600060608673ffffffffffffffffffffffffffffffffffffffff1685876040518082805190602001908083835b602083106127ea57805182526020820191506020810190506020830392506127c7565b6001836020036101000a03801982511681845116808217855250505050505090500191505060006040518083038185875af1925050503d806000811461284c576040519150601f19603f3d011682016040523d82523d6000602084013e612851565b606091505b5091509150612861828286612880565b92505050949350505050565b600080823b905060008111915050919050565b6060831561289057829050612945565b6000835111156128a35782518084602001fd5b816040517f08c379a00000000000000000000000000000000000000000000000000000000081526004018080602001828103825283818151815260200191508051906020019080838360005b8381101561290a5780820151818401526020810190506128ef565b50505050905090810190601f1680156129375780820380516001836020036101000a031916815260200191505b509250505060405180910390fd5b939250505056fe4f776e61626c653a206e6577206f776e657220697320746865207a65726f2061646472657373416464726573733a20696e73756666696369656e742062616c616e636520666f722063616c6c536166654d6174683a206d756c7469706c69636174696f6e206f766572666c6f775361666545524332303a204552433230206f7065726174696f6e20646964206e6f742073756363656564a264697066735822122026806604c45ef7798504d05773a56fc8da8b2d97f3a924b221c330a4769d187264736f6c634300060c0033",
  "source": "pragma solidity 0.6.12;\n\nimport \"@openzeppelin/contracts/math/SafeMath.sol\";\nimport \"@openzeppelin/contracts/access/Ownable.sol\";\nimport \"@openzeppelin/contracts/token/ERC20/IERC20.sol\";\nimport \"@openzeppelin/contracts/token/ERC20/SafeERC20.sol\";\n\ncontract Roulette is Ownable {\n    using SafeMath for uint256;\n    using SafeERC20 for IERC20;\n\n    uint256 public currentRound; // current round\n    uint256 public maxGameDuration = 1 hours;\n    IERC20 public token;\n    bool private paused;\n\n    struct Round {\n        uint256 gameId;\n        uint256 startTimestamp;\n        uint256 closeTimestamp;\n        uint256 rewardAmount;\n        uint256 totalWinner;\n    }\n\n    struct User {\n        mapping(uint256 => twist) spinCount; // total spin count\n        uint256[] participatedRound;\n        uint256 lastRound; // last round participted\n        uint256 lastIndex; // last reward withdraw index\n    }\n\n    struct twist {\n        uint256 red; // 0\n        uint256 blue; //1\n    }\n    mapping(uint256 => Round) public roundInfo;\n    mapping(address => User) public userInfo;\n    mapping(address => bool) public operator;\n\n    event AddRound(uint256 gameId, uint256 totalReward);\n    event Spin(address user, uint256 gameId, uint256 position);\n    event Claim(address user, uint256 amount);\n    event Paused();\n    event UnPaused();\n    event SetOperator(address addr);\n\n    modifier onlyOperatorOrOwner() {\n        require(\n            operator[msg.sender] == true || owner() == msg.sender,\n            \"Not operator/owner\"\n        );\n        _;\n    }\n\n    modifier isPaused() {\n        require(!paused, \"contract Locked\");\n        _;\n    }\n\n    constructor(IERC20 _token) public {\n        token = _token;\n    }\n\n    function addRound(uint256 amount) external onlyOperatorOrOwner {\n        // Increment currentRound\n        currentRound = currentRound + 1;\n        roundInfo[currentRound] = Round(\n            currentRound,\n            block.timestamp,\n            block.timestamp + maxGameDuration,\n            amount,\n            0\n        );\n        emit AddRound(currentRound, amount);\n    }\n\n    function spin() external isPaused {\n        address user = msg.sender;\n        require(\n            roundInfo[currentRound].closeTimestamp > block.timestamp,\n            \"Closed\"\n        );\n\n        bytes32 hashOfRandom = keccak256(\n            abi.encodePacked(block.number, block.timestamp, currentRound)\n        );\n        uint256 winningNumber = uint256(hashOfRandom).mod(2);\n        if (winningNumber == 0) {\n            userInfo[user].spinCount[currentRound].red =\n                userInfo[user].spinCount[currentRound].red +\n                1;\n        } else {\n            userInfo[user].spinCount[currentRound].blue =\n                userInfo[user].spinCount[currentRound].blue +\n                1;\n            roundInfo[currentRound].totalWinner =\n                roundInfo[currentRound].totalWinner +\n                1;\n        }\n        if (userInfo[user].lastRound != currentRound) {\n            userInfo[user].lastRound = currentRound;\n            userInfo[user].participatedRound.push(currentRound);\n        }\n\n        emit Spin(user, currentRound, winningNumber);\n    }\n\n    function claim() external isPaused {\n        address user = msg.sender;\n        require(\n            roundInfo[currentRound].closeTimestamp < block.timestamp,\n            \"Closed\"\n        );\n        require(\n            userInfo[user].participatedRound.length > 0,\n            \"Only participants\"\n        );\n        require(\n            userInfo[user].participatedRound.length > userInfo[user].lastIndex,\n            \"No pending\"\n        );\n\n        uint256 amount;\n        uint256 roundId;\n        for (\n            uint256 i = userInfo[user].lastIndex;\n            i < userInfo[user].participatedRound.length;\n            i++\n        ) {\n            roundId = userInfo[user].participatedRound[i];\n            uint256 count = userInfo[user].spinCount[roundId].blue;\n            if (count > 0) {\n                amount = amount.add(\n                    count.mul(\n                        (\n                            roundInfo[roundId].rewardAmount.div(\n                                roundInfo[roundId].totalWinner\n                            )\n                        )\n                    )\n                );\n            }\n        }\n\n        safeTransfer(user, amount);\n        emit Claim(user, amount);\n    }\n\n    // Safe transfer function\n    function safeTransfer(address _to, uint256 _amount) private {\n        uint256 _rewardBal = token.balanceOf(address(this));\n        if (_amount > _rewardBal) {\n            token.transfer(_to, _rewardBal);\n        } else {\n            token.transfer(_to, _amount);\n        }\n    }\n\n    function getUserInfo(address user)\n        external\n        view\n        returns (\n            uint256[] memory totalParticipatedRound,\n            uint256 lastRound,\n            uint256 lastIndex\n        )\n    {\n        totalParticipatedRound = userInfo[user].participatedRound;\n        lastRound = userInfo[user].lastRound;\n        lastIndex = userInfo[user].lastIndex;\n\n        return (totalParticipatedRound, lastRound, lastIndex);\n    }\n\n    function getUserTotalSpin(address user, uint256 gameID)\n        external\n        view\n        returns (uint256 red, uint256 blue)\n    {\n        red = userInfo[user].spinCount[gameID].red;\n        blue = userInfo[user].spinCount[gameID].blue;\n        return (red, blue);\n    }\n\n    function pause() external onlyOwner {\n        require(!paused, \"already paused\");\n        paused = true;\n        emit Paused();\n    }\n\n    function unPause() external onlyOwner {\n        require(!paused, \"already unPaused\");\n        paused = false;\n        emit UnPaused();\n    }\n\n    function setOperator(address _addr) external onlyOwner {\n        require(_addr != address(0x000), \"zero address\");\n        operator[_addr] = true;\n        emit SetOperator(_addr);\n    }\n\n    function setRewardToken(address _token) external onlyOwner {\n        require(_token != address(0x000), \"zero address\");\n        token = IERC20(_token);\n    }\n\n    function setMaxGameDuration(uint256 _duration) external onlyOwner {\n        maxGameDuration = _duration;\n    }\n\n    function inCaseTokensGetStuck(address[] memory _token) external onlyOwner {\n        uint256 amount;\n        for (uint256 i = 0; i < _token.length; i++) {\n            amount = IERC20(_token[i]).balanceOf(address(this));\n            IERC20(_token[i]).safeTransfer(msg.sender, amount);\n        }\n    }\n}\n",
  "sourcePath": "/home/sultana/Desktop/learn/upgradable/spiderSwap/contracts/game/Roulette.sol",
  "compiler": {
    "name": "solc",
    "version": "0.6.12+commit.27d51765.Emscripten.clang"
  },
  "schemaVersion": "3.0.23",
  "updatedAt": "2022-02-11T17:37:25.395Z",
  "devdoc": {
    "kind": "dev",
    "methods": {
      "owner()": {
        "details": "Returns the address of the current owner."
      },
      "renounceOwnership()": {
        "details": "Leaves the contract without owner. It will not be possible to call `onlyOwner` functions anymore. Can only be called by the current owner. NOTE: Renouncing ownership will leave the contract without an owner, thereby removing any functionality that is only available to the owner."
      },
      "transferOwnership(address)": {
        "details": "Transfers ownership of the contract to a new account (`newOwner`). Can only be called by the current owner."
      }
    },
    "version": 1
  },
  "userdoc": {
    "kind": "user",
    "methods": {},
    "version": 1
  }
}